{
  "contractName": "ChainlinkEcoTree",
  "abi": [
    {
      "constant": true,
      "inputs": [],
      "name": "sumNbrArbres",
      "outputs": [
        {
          "name": "",
          "type": "uint256"
        }
      ],
      "payable": false,
      "stateMutability": "view",
      "type": "function"
    },
    {
      "constant": true,
      "inputs": [],
      "name": "sumPrixTtc",
      "outputs": [
        {
          "name": "",
          "type": "uint256"
        }
      ],
      "payable": false,
      "stateMutability": "view",
      "type": "function"
    },
    {
      "constant": true,
      "inputs": [
        {
          "name": "",
          "type": "uint256"
        }
      ],
      "name": "divisionsValueData",
      "outputs": [
        {
          "name": "nbrArbres",
          "type": "bytes32"
        },
        {
          "name": "prixTtc",
          "type": "bytes32"
        }
      ],
      "payable": false,
      "stateMutability": "view",
      "type": "function"
    },
    {
      "inputs": [
        {
          "name": "_link",
          "type": "address"
        },
        {
          "name": "_oracle",
          "type": "address"
        },
        {
          "name": "_etDivision",
          "type": "address"
        }
      ],
      "payable": false,
      "stateMutability": "nonpayable",
      "type": "constructor"
    },
    {
      "anonymous": false,
      "inputs": [
        {
          "indexed": true,
          "name": "id",
          "type": "bytes32"
        }
      ],
      "name": "ChainlinkRequested",
      "type": "event"
    },
    {
      "anonymous": false,
      "inputs": [
        {
          "indexed": true,
          "name": "id",
          "type": "bytes32"
        }
      ],
      "name": "ChainlinkFulfilled",
      "type": "event"
    },
    {
      "anonymous": false,
      "inputs": [
        {
          "indexed": true,
          "name": "id",
          "type": "bytes32"
        }
      ],
      "name": "ChainlinkCancelled",
      "type": "event"
    },
    {
      "constant": false,
      "inputs": [
        {
          "name": "_jobId",
          "type": "bytes32"
        },
        {
          "name": "_divisionId",
          "type": "uint256"
        }
      ],
      "name": "requestDivisionValueData",
      "outputs": [
        {
          "name": "success",
          "type": "bool"
        }
      ],
      "payable": false,
      "stateMutability": "nonpayable",
      "type": "function"
    },
    {
      "constant": false,
      "inputs": [
        {
          "name": "_requestId",
          "type": "bytes32"
        },
        {
          "name": "_divisionDataField",
          "type": "bytes32"
        }
      ],
      "name": "fulfillDivisionValueData",
      "outputs": [],
      "payable": false,
      "stateMutability": "nonpayable",
      "type": "function"
    }
  ],
  "bytecode": "0x608060405260016004553480156200001657600080fd5b5060405160608062001c25833981018060405281019080805190602001909291908051906020019092919080519060200190929190505050600073ffffffffffffffffffffffffffffffffffffffff168373ffffffffffffffffffffffffffffffffffffffff161415620000a3576200009d62000224640100000000026401000000009004565b620000be565b620000bd83620002f5640100000000026401000000009004565b5b600073ffffffffffffffffffffffffffffffffffffffff168273ffffffffffffffffffffffffffffffffffffffff1614151515620001b0576040517f08c379a000000000000000000000000000000000000000000000000000000000815260040180806020018281038252605a8152602001807f506c656173652070726f76696465207468652061646472657373206f6620612081526020017f76616c696420436861696e6c696e6b206f7261636c6520666f7220746865206381526020017f757272656e746c792073656c6563746564206e6574776f726b2e00000000000081525060600191505060405180910390fd5b620001ca8262000339640100000000026401000000009004565b80600660006101000a81548173ffffffffffffffffffffffffffffffffffffffff021916908373ffffffffffffffffffffffffffffffffffffffff160217905550600060078190555060006008819055505050506200037d565b620002f373c89bd4e1632d3a43cb03aaad5262cbe4038bc57173ffffffffffffffffffffffffffffffffffffffff166338cc48316040518163ffffffff167c0100000000000000000000000000000000000000000000000000000000028152600401602060405180830381600087803b158015620002a157600080fd5b505af1158015620002b6573d6000803e3d6000fd5b505050506040513d6020811015620002cd57600080fd5b8101908080519060200190929190505050620002f5640100000000026401000000009004565b565b80600260006101000a81548173ffffffffffffffffffffffffffffffffffffffff021916908373ffffffffffffffffffffffffffffffffffffffff16021790555050565b80600360006101000a81548173ffffffffffffffffffffffffffffffffffffffff021916908373ffffffffffffffffffffffffffffffffffffffff16021790555050565b611898806200038d6000396000f30060806040526004361061006d576000357c0100000000000000000000000000000000000000000000000000000000900463ffffffff16806315930d1b1461007257806341d3e7e61461009d5780636daf3a6c146100f057806392cb09a51461011b578063d60f4d3a1461015a575b600080fd5b34801561007e57600080fd5b506100876101b2565b6040518082815260200191505060405180910390f35b3480156100a957600080fd5b506100d66004803603810190808035600019169060200190929190803590602001909291905050506101b8565b604051808215151515815260200191505060405180910390f35b3480156100fc57600080fd5b5061010561021c565b6040518082815260200191505060405180910390f35b34801561012757600080fd5b5061015860048036038101908080356000191690602001909291908035600019169060200190929190505050610222565b005b34801561016657600080fd5b506101856004803603810190808035906020019092919050505061065b565b60405180836000191660001916815260200182600019166000191681526020019250505060405180910390f35b60075481565b60006101e583837f6e6272417262726573000000000000000000000000000000000000000000000061067f565b5061021183837f707269785474630000000000000000000000000000000000000000000000000061067f565b506001905092915050565b60085481565b60608260056000826000191660001916815260200190815260200160002060009054906101000a900473ffffffffffffffffffffffffffffffffffffffff1673ffffffffffffffffffffffffffffffffffffffff163373ffffffffffffffffffffffffffffffffffffffff16141515610329576040517f08c379a00000000000000000000000000000000000000000000000000000000081526004018080602001828103825260288152602001807f536f75726365206d75737420626520746865206f7261636c65206f662074686581526020017f207265717565737400000000000000000000000000000000000000000000000081525060400191505060405180910390fd5b60056000826000191660001916815260200190815260200160002060006101000a81549073ffffffffffffffffffffffffffffffffffffffff021916905580600019167f7cc135e0cebb02c3480ae5d74d377283180a2601f8f644edf7987b009316c63a60405160405180910390a2600660009054906101000a900473ffffffffffffffffffffffffffffffffffffffff1673ffffffffffffffffffffffffffffffffffffffff1663a27c0661600a60008760001916600019168152602001908152602001600020600001546040518263ffffffff167c010000000000000000000000000000000000000000000000000000000002815260040180828152602001915050600060405180830381600087803b15801561044757600080fd5b505af115801561045b573d6000803e3d6000fd5b505050506040513d6000823e3d601f19601f82011682018060405250602081101561048557600080fd5b81019080805164010000000081111561049d57600080fd5b828101905060208101848111156104b357600080fd5b81518560018202830111640100000000821117156104d057600080fd5b505092919050505091506000825114156104e957610655565b7f6e62724172627265730000000000000000000000000000000000000000000000600a60008660001916600019168152602001908152602001600020600101546000191614156105a0578260096000600a60008860001916600019168152602001908152602001600020600001548152602001908152602001600020600001816000191690555061059561058461057f8561088e565b610a8a565b600754610b5c90919063ffffffff16565b600781905550610654565b7f7072697854746300000000000000000000000000000000000000000000000000600a6000866000191660001916815260200190815260200160002060010154600019161415610653578260096000600a60008860001916600019168152602001908152602001600020600001548152602001908152602001600020600101816000191690555061064c61063b6106368561088e565b610a8a565b600854610b5c90919063ffffffff16565b6008819055505b5b5b50505050565b60096020528060005260406000206000915090508060000154908060010154905082565b60006106896117ca565b60006106b986306392cb09a57c010000000000000000000000000000000000000000000000000000000002610b78565b91506107c76040805190810160405280600381526020017f67657400000000000000000000000000000000000000000000000000000000008152506106fd87610ba9565b60405160200180807f68747470733a2f2f65636f747265652e66722f6170692f6469766973696f6e7381526020017f2f0000000000000000000000000000000000000000000000000000000000000081525060210182805190602001908083835b602083101515610783578051825260208201915060208101905060208303925061075e565b6001836020036101000a03801982511681845116808217855250505050505090500191505060405160208183030381529060405284610d009092919063ffffffff16565b6108196040805190810160405280600481526020017f70617468000000000000000000000000000000000000000000000000000000008152506108098661088e565b84610d009092919063ffffffff16565b61082e82670de0b6b3a7640000600102610d33565b905060408051908101604052808681526020018560001916815250600a6000836000191660001916815260200190815260200160002060008201518160000155602082015181600101906000191690559050506001925050509392505050565b6060806000806000606060206040519080825280601f01601f1916602001820160405280156108cc5781602001602082028038833980820191505090505b50945060009350600092505b6020831015610996578260080260020a876001900402600102915060007f010000000000000000000000000000000000000000000000000000000000000002827effffffffffffffffffffffffffffffffffffffffffffffffffffffffffffff19161415156109895781858581518110151561095057fe5b9060200101907effffffffffffffffffffffffffffffffffffffffffffffffffffffffffffff1916908160001a90535083806001019450505b82806001019350506108d8565b836040519080825280601f01601f1916602001820160405280156109c95781602001602082028038833980820191505090505b509050600092505b83831015610a7d5784838151811015156109e757fe5b9060200101517f010000000000000000000000000000000000000000000000000000000000000090047f0100000000000000000000000000000000000000000000000000000000000000028184815181101515610a4057fe5b9060200101907effffffffffffffffffffffffffffffffffffffffffffffffffffffffffffff1916908160001a90535082806001019350506109d1565b8095505050505050919050565b6000606060008084925060009350600091505b8251821015610b54578282815181101515610ab457fe5b9060200101517f010000000000000000000000000000000000000000000000000000000000000090047f0100000000000000000000000000000000000000000000000000000000000000027f01000000000000000000000000000000000000000000000000000000000000009004905060308110158015610b36575060398111155b15610b475760308103600a85020193505b8180600101925050610a9d565b505050919050565b60008183019050828110151515610b6f57fe5b80905092915050565b610b806117ca565b610b886117ca565b610b9f85858584610d6a909392919063ffffffff16565b9150509392505050565b60606000806060600080861415610bf7576040805190810160405280600181526020017f30000000000000000000000000000000000000000000000000000000000000008152509450610cf7565b8593505b600084141515610c21578280600101935050600a84811515610c1957fe5b049350610bfb565b826040519080825280601f01601f191660200182016040528015610c545781602001602082028038833980820191505090505b5091506001830390505b600086141515610cf357600a86811515610c7457fe5b066030017f010000000000000000000000000000000000000000000000000000000000000002828280600190039350815181101515610caf57fe5b9060200101907effffffffffffffffffffffffffffffffffffffffffffffffffffffffffffff1916908160001a905350600a86811515610ceb57fe5b049550610c5e565b8194505b50505050919050565b610d17828460800151610e2490919063ffffffff16565b610d2e818460800151610e2490919063ffffffff16565b505050565b6000610d62600360009054906101000a900473ffffffffffffffffffffffffffffffffffffffff168484610e49565b905092915050565b610d726117ca565b610d8285608001516101006111d5565b50838560000190600019169081600019168152505082856020019073ffffffffffffffffffffffffffffffffffffffff16908173ffffffffffffffffffffffffffffffffffffffff16815250508185604001907bffffffffffffffffffffffffffffffffffffffffffffffffffffffff191690817bffffffffffffffffffffffffffffffffffffffffffffffffffffffff191681525050849050949350505050565b610e31826003835161122f565b610e44818361138d90919063ffffffff16565b505050565b600030600454604051602001808373ffffffffffffffffffffffffffffffffffffffff1673ffffffffffffffffffffffffffffffffffffffff166c01000000000000000000000000028152601401828152602001925050506040516020818303038152906040526040518082805190602001908083835b602083101515610ee55780518252602082019150602081019050602083039250610ec0565b6001836020036101000a038019825116818451168082178552505050505050905001915050604051809103902090506004548360600181815250508360056000836000191660001916815260200190815260200160002060006101000a81548173ffffffffffffffffffffffffffffffffffffffff021916908373ffffffffffffffffffffffffffffffffffffffff16021790555080600019167fb5e6e01e79f91267dc17b4e6314d5d4d03593d2ceee0fbb452b750bd70ea5af960405160405180910390a2600260009054906101000a900473ffffffffffffffffffffffffffffffffffffffff1673ffffffffffffffffffffffffffffffffffffffff16634000aea08584610ff4876113af565b6040518463ffffffff167c0100000000000000000000000000000000000000000000000000000000028152600401808473ffffffffffffffffffffffffffffffffffffffff1673ffffffffffffffffffffffffffffffffffffffff16815260200183815260200180602001828103825283818151815260200191508051906020019080838360005b8381101561109757808201518184015260208101905061107c565b50505050905090810190601f1680156110c45780820380516001836020036101000a031916815260200191505b50945050505050602060405180830381600087803b1580156110e557600080fd5b505af11580156110f9573d6000803e3d6000fd5b505050506040513d602081101561110f57600080fd5b810190808051906020019092919050505015156111ba576040517f08c379a00000000000000000000000000000000000000000000000000000000081526004018080602001828103825260238152602001807f756e61626c6520746f207472616e73666572416e6443616c6c20746f206f726181526020017f636c65000000000000000000000000000000000000000000000000000000000081525060400191505060405180910390fd5b60016004600082825401925050819055508090509392505050565b6111dd611838565b60006020838115156111eb57fe5b06141515611208576020828115156111ff57fe5b06602003820191505b81836020018181525050604051808452600081528281016020016040525082905092915050565b6017811115156112615761125b8160058460ff169060020a0260ff1617846115da90919063ffffffff16565b50611388565b60ff811115156112a85761128b601860058460ff169060020a0217846115da90919063ffffffff16565b506112a2816001856115fa9092919063ffffffff16565b50611387565b61ffff811115156112f0576112d3601960058460ff169060020a0217846115da90919063ffffffff16565b506112ea816002856115fa9092919063ffffffff16565b50611386565b63ffffffff8111151561133a5761131d601a60058460ff169060020a0217846115da90919063ffffffff16565b50611334816004856115fa9092919063ffffffff16565b50611385565b67ffffffffffffffff811115156113845761136b601b60058460ff169060020a0217846115da90919063ffffffff16565b50611382816008856115fa9092919063ffffffff16565b505b5b5b5b5b505050565b611395611838565b6113a78384600001515184855161161c565b905092915050565b6060600360009054906101000a900473ffffffffffffffffffffffffffffffffffffffff1673ffffffffffffffffffffffffffffffffffffffff16634042994690507c01000000000000000000000000000000000000000000000000000000000260008084600001518560200151866040015187606001516001896080015160000151604051602401808973ffffffffffffffffffffffffffffffffffffffff1673ffffffffffffffffffffffffffffffffffffffff16815260200188815260200187600019166000191681526020018673ffffffffffffffffffffffffffffffffffffffff1673ffffffffffffffffffffffffffffffffffffffff168152602001857bffffffffffffffffffffffffffffffffffffffffffffffffffffffff19167bffffffffffffffffffffffffffffffffffffffffffffffffffffffff1916815260200184815260200183815260200180602001828103825283818151815260200191508051906020019080838360005b8381101561153d578082015181840152602081019050611522565b50505050905090810190601f16801561156a5780820380516001836020036101000a031916815260200191505b509950505050505050505050604051602081830303815290604052907bffffffffffffffffffffffffffffffffffffffffffffffffffffffff19166020820180517bffffffffffffffffffffffffffffffffffffffffffffffffffffffff83818316178352505050509050919050565b6115e2611838565b6115f283846000015151846116d9565b905092915050565b611602611838565b611613848560000151518585611729565b90509392505050565b611624611838565b60008060008551851115151561163957600080fd5b876020015185880111156116645761166388600261165d8b602001518b8a0161178a565b026117a6565b5b8751805188602083010194508089880111156116805788870182525b60208801935050505b6020851015156116ae5781518352602083019250602082019150602085039450611689565b6001856020036101000a03905080198251168184511681811785525050879350505050949350505050565b6116e1611838565b836020015183101515611700576116ff8460028660200151026117a6565b5b835180516020858301018481538186141561171c576001820183525b5050508390509392505050565b611731611838565b60008560200151858401111561175157611750866002878601026117a6565b5b6001836101000a039050855183868201018583198251161781528151858801111561177c5784870182525b505085915050949350505050565b60008183111561179c578290506117a0565b8190505b92915050565b6060826000015190506117b983836111d5565b506117c4838261138d565b50505050565b60c06040519081016040528060008019168152602001600073ffffffffffffffffffffffffffffffffffffffff16815260200160007bffffffffffffffffffffffffffffffffffffffffffffffffffffffff1916815260200160008152602001611832611852565b81525090565b604080519081016040528060608152602001600081525090565b6040805190810160405280606081526020016000815250905600a165627a7a723058203409641811a3847dd04459bf7de82e3fd1178a7aaa4ae690636c7c61208fb3b40029",
  "source": "pragma solidity ^0.4.24;\n\nimport \"chainlink/contracts/ChainlinkClient.sol\";\n// import { SafeMath } from \"openzeppelin-solidity/contracts/math/SafeMath.sol\";\n\ninterface Division {\n  // mapping (uint256 => string) public _tokenMetadataIpfsHashes;\n  function _tokenMetadataIpfsHashes(uint256 arg) external returns (string a);\n}\n\n// ChainlinkEcoTree inherits the Chainlinked contract to gain the\n// functionality of creating Chainlink requests.\ncontract ChainlinkEcoTree is ChainlinkClient {\n  using SafeMath for uint256;\n\n  Division internal deployedDivisionNFTContract;\n\n  uint256 public sumNbrArbres;\n  uint256 public sumPrixTtc;\n\n  struct DivisionValueData {\n    bytes32 nbrArbres;\n    bytes32 prixTtc;\n  }\n\n  struct DataType {\n    uint256 divisionId;\n    bytes32 typeName;\n  }\n\n  mapping (uint256 => DivisionValueData) public divisionsValueData;\n  mapping (bytes32 => DataType) internal requestIdToDataType;\n\n  constructor(address _link, address _oracle, address _etDivision) public {\n    // Set the address for the LINK token for the network.\n    if(_link == address(0)) {\n      // Useful for deploying to public networks.\n      setPublicChainlinkToken();\n    } else {\n      // Useful if you're deploying to a local network.\n      setChainlinkToken(_link);\n    }\n    // Set the oracle that will be used for making requests\n    require(\n      _oracle != address(0),\n      \"Please provide the address of a valid Chainlink oracle for the currently selected network.\"\n    );\n    setChainlinkOracle(_oracle);\n    // Set address of existing (deployed) Division NFT smart contract\n    deployedDivisionNFTContract = Division(_etDivision);\n    // Set intial sum values\n    sumNbrArbres = 0;\n    sumPrixTtc = 0;\n  }\n\n  function makeSingleRequest(bytes32 _jobId, uint256 _divisionId, bytes32 _typeName) internal returns (bool success) {\n    // Takes a JobID, a callback address, and callback function\n    Chainlink.Request memory req = buildChainlinkRequest(_jobId, this, this.fulfillDivisionValueData.selector);\n    // A URL with the key \"get\" to the request parameters\n    req.add(\"get\", string(abi.encodePacked(\"https://ecotree.fr/api/divisions/\", uint2str(_divisionId))));\n    // Dot-delimited JSON key \"path\" to the desired parameters\n    req.add(\"path\", bytes32ToString(_typeName));\n    // Send the request with 1 LINK to the oracle contract\n    bytes32 requestId = sendChainlinkRequest(req, 1 * LINK);\n    // Save mapping of request ID to the corrosponding forest ID and data type\n    requestIdToDataType[requestId] = DataType({divisionId: _divisionId, typeName: _typeName});\n\n    return true;\n  }\n  \n  // Creates a Chainlink request with the bytes32 job and returns the requestId\n  function requestDivisionValueData(bytes32 _jobId, uint256 _divisionId) public returns (bool success) {\n    // Make request for ID field of this forest\n    makeSingleRequest(_jobId, _divisionId, \"nbrArbres\"); // nbrArbres attributes.12.value\n    // Make request for essence_id field of this forest\n    makeSingleRequest(_jobId, _divisionId, \"prixTtc\"); // prixTtc attributes.13.value\n\n    return true;\n  }\n\n  // fulfillDivisionValueData receives a bytes32 data type\n  function fulfillDivisionValueData(bytes32 _requestId, bytes32 _divisionDataField)\n    // Use recordChainlinkFulfillment to ensure only the requesting oracle can fulfill\n    public recordChainlinkFulfillment(_requestId) {\n    // Only allow fulfillment of the division's data if the data has definitely been minted\n    bytes memory checkHashEmpty = bytes(deployedDivisionNFTContract._tokenMetadataIpfsHashes(requestIdToDataType[_requestId].divisionId)); // Uses memory\n    if (checkHashEmpty.length == 0) {\n      return; // Since the hash is empty for that divisionId, we know this division hasn't been minted yet\n    }\n    // Set the forest's data field based on the fulfilled data and its type\n    if (requestIdToDataType[_requestId].typeName == \"nbrArbres\") {\n      divisionsValueData[requestIdToDataType[_requestId].divisionId].nbrArbres = _divisionDataField;\n      // Update sum counter also\n      sumNbrArbres = sumNbrArbres.add(stringToUint(bytes32ToString(_divisionDataField)));\n    } else if (requestIdToDataType[_requestId].typeName == \"prixTtc\") {\n      divisionsValueData[requestIdToDataType[_requestId].divisionId].prixTtc = _divisionDataField;\n      // Update sum counter also\n      sumPrixTtc = sumPrixTtc.add(stringToUint(bytes32ToString(_divisionDataField)));\n    }\n  }\n\n  /* \n   * HELPER FUNCTIONS\n   */\n\n  function bytes32ToString(bytes32 x) internal pure returns (string) {\n    bytes memory bytesString = new bytes(32);\n    uint charCount = 0;\n    for (uint j = 0; j < 32; j++) {\n      byte char = byte(bytes32(uint(x) * 2 ** (8 * j)));\n      if (char != 0) {\n        bytesString[charCount] = char;\n        charCount++;\n      }\n    }\n    bytes memory bytesStringTrimmed = new bytes(charCount);\n    for (j = 0; j < charCount; j++) {\n        bytesStringTrimmed[j] = bytesString[j];\n    }\n    return string(bytesStringTrimmed);\n  }\n\n  function uint2str(uint i) internal pure returns (string) {\n    if (i == 0) return \"0\";\n    uint j = i;\n    uint length;\n    while (j != 0){\n      length++;\n      j /= 10;\n    }\n    bytes memory bstr = new bytes(length);\n    uint k = length - 1;\n    while (i != 0){\n      bstr[k--] = byte(48 + i % 10);\n      i /= 10;\n    }\n    return string(bstr);\n  }\n\n  function stringToUint(string s) internal pure returns (uint result) {\n    bytes memory b = bytes(s);\n    uint i;\n    result = 0;\n    for (i = 0; i < b.length; i++) {\n      uint c = uint(b[i]);\n      if (c >= 48 && c <= 57) {\n        result = result * 10 + (c - 48);\n      }\n    }\n  }\n}\n",
  "sourcePath": "/Users/leo/flyingcarpet/prediction-market/truffle-chainlink/contracts/ChainlinkEcoTree.sol",
  "compiler": {
    "name": "solc",
    "version": "0.4.24+commit.e67f0147.Emscripten.clang"
  },
  "schemaVersion": "3.0.18",
  "updatedAt": "2019-12-19T13:18:55.947Z",
  "networkType": "ethereum",
  "devdoc": {
    "methods": {}
  },
  "userdoc": {
    "methods": {}
  }
}