{
  "contractName": "ChainlinkEcoTree",
  "abi": [
    {
      "constant": true,
      "inputs": [
        {
          "name": "",
          "type": "uint256"
        }
      ],
      "name": "forests",
      "outputs": [
        {
          "name": "id",
          "type": "bytes32"
        },
        {
          "name": "essence_id",
          "type": "bytes32"
        },
        {
          "name": "parcelle_id",
          "type": "bytes32"
        },
        {
          "name": "description",
          "type": "bytes32"
        },
        {
          "name": "date_plantation",
          "type": "bytes32"
        }
      ],
      "payable": false,
      "stateMutability": "view",
      "type": "function"
    },
    {
      "constant": true,
      "inputs": [],
      "name": "accessible1",
      "outputs": [
        {
          "name": "",
          "type": "uint256"
        }
      ],
      "payable": false,
      "stateMutability": "view",
      "type": "function"
    },
    {
      "constant": true,
      "inputs": [],
      "name": "accessible",
      "outputs": [
        {
          "name": "",
          "type": "bytes32"
        }
      ],
      "payable": false,
      "stateMutability": "view",
      "type": "function"
    },
    {
      "constant": true,
      "inputs": [],
      "name": "accessible2",
      "outputs": [
        {
          "name": "",
          "type": "string"
        }
      ],
      "payable": false,
      "stateMutability": "view",
      "type": "function"
    },
    {
      "constant": true,
      "inputs": [],
      "name": "accessible4",
      "outputs": [
        {
          "name": "",
          "type": "bytes32"
        }
      ],
      "payable": false,
      "stateMutability": "view",
      "type": "function"
    },
    {
      "constant": true,
      "inputs": [],
      "name": "accessible3",
      "outputs": [
        {
          "name": "",
          "type": "bytes32"
        }
      ],
      "payable": false,
      "stateMutability": "view",
      "type": "function"
    },
    {
      "inputs": [
        {
          "name": "_link",
          "type": "address"
        },
        {
          "name": "_oracle",
          "type": "address"
        }
      ],
      "payable": false,
      "stateMutability": "nonpayable",
      "type": "constructor"
    },
    {
      "anonymous": false,
      "inputs": [
        {
          "indexed": true,
          "name": "id",
          "type": "bytes32"
        }
      ],
      "name": "ChainlinkRequested",
      "type": "event"
    },
    {
      "anonymous": false,
      "inputs": [
        {
          "indexed": true,
          "name": "id",
          "type": "bytes32"
        }
      ],
      "name": "ChainlinkFulfilled",
      "type": "event"
    },
    {
      "anonymous": false,
      "inputs": [
        {
          "indexed": true,
          "name": "id",
          "type": "bytes32"
        }
      ],
      "name": "ChainlinkCancelled",
      "type": "event"
    },
    {
      "constant": false,
      "inputs": [
        {
          "name": "_jobId",
          "type": "bytes32"
        },
        {
          "name": "_numForests",
          "type": "uint256"
        }
      ],
      "name": "requestForests",
      "outputs": [
        {
          "name": "success",
          "type": "bool"
        }
      ],
      "payable": false,
      "stateMutability": "nonpayable",
      "type": "function"
    },
    {
      "constant": false,
      "inputs": [
        {
          "name": "_requestId",
          "type": "bytes32"
        },
        {
          "name": "_forestDataField",
          "type": "bytes32"
        }
      ],
      "name": "fulfillForest",
      "outputs": [],
      "payable": false,
      "stateMutability": "nonpayable",
      "type": "function"
    }
  ],
  "bytecode": "0x608060405260016004553480156200001657600080fd5b5060405160408062001e898339810180604052810190808051906020019092919080519060200190929190505050600073ffffffffffffffffffffffffffffffffffffffff168273ffffffffffffffffffffffffffffffffffffffff161415620000995762000093620001c8640100000000026401000000009004565b620000b4565b620000b38262000299640100000000026401000000009004565b5b600073ffffffffffffffffffffffffffffffffffffffff168173ffffffffffffffffffffffffffffffffffffffff1614151515620001a6576040517f08c379a000000000000000000000000000000000000000000000000000000000815260040180806020018281038252605a8152602001807f506c656173652070726f76696465207468652061646472657373206f6620612081526020017f76616c696420436861696e6c696e6b206f7261636c6520666f7220746865206381526020017f757272656e746c792073656c6563746564206e6574776f726b2e00000000000081525060600191505060405180910390fd5b620001c081620002dd640100000000026401000000009004565b505062000321565b6200029773c89bd4e1632d3a43cb03aaad5262cbe4038bc57173ffffffffffffffffffffffffffffffffffffffff166338cc48316040518163ffffffff167c0100000000000000000000000000000000000000000000000000000000028152600401602060405180830381600087803b1580156200024557600080fd5b505af11580156200025a573d6000803e3d6000fd5b505050506040513d60208110156200027157600080fd5b810190808051906020019092919050505062000299640100000000026401000000009004565b565b80600260006101000a81548173ffffffffffffffffffffffffffffffffffffffff021916908373ffffffffffffffffffffffffffffffffffffffff16021790555050565b80600360006101000a81548173ffffffffffffffffffffffffffffffffffffffff021916908373ffffffffffffffffffffffffffffffffffffffff16021790555050565b611b5880620003316000396000f30060806040526004361061008e576000357c0100000000000000000000000000000000000000000000000000000000900463ffffffff1680632c438316146100935780632d31c27b146101185780639df4548e14610143578063ab2e9ad714610196578063d42158e7146101c9578063d4a6d42714610259578063fc7cc2e41461028c578063fef6e4cb146102bf575b600080fd5b34801561009f57600080fd5b506100be600480360381019080803590602001909291905050506102fe565b60405180866000191660001916815260200185600019166000191681526020018460001916600019168152602001836000191660001916815260200182600019166000191681526020019550505050505060405180910390f35b34801561012457600080fd5b5061012d610334565b6040518082815260200191505060405180910390f35b34801561014f57600080fd5b5061017c60048036038101908080356000191690602001909291908035906020019092919050505061033a565b604051808215151515815260200191505060405180910390f35b3480156101a257600080fd5b506101ab61043e565b60405180826000191660001916815260200191505060405180910390f35b3480156101d557600080fd5b506101de610444565b6040518080602001828103825283818151815260200191508051906020019080838360005b8381101561021e578082015181840152602081019050610203565b50505050905090810190601f16801561024b5780820380516001836020036101000a031916815260200191505b509250505060405180910390f35b34801561026557600080fd5b5061026e6104e2565b60405180826000191660001916815260200191505060405180910390f35b34801561029857600080fd5b506102a16104e8565b60405180826000191660001916815260200191505060405180910390f35b3480156102cb57600080fd5b506102fc600480360381019080803560001916906020019092919080356000191690602001909291905050506104ee565b005b600b6020528060005260406000206000915090508060000154908060010154908060020154908060030154908060040154905085565b60075481565b600080600090505b828110156104335761037584827f696400000000000000000000000000000000000000000000000000000000000061094c565b506103a184827f657373656e63655f69640000000000000000000000000000000000000000000061094c565b506103cd84827f70617263656c6c655f696400000000000000000000000000000000000000000061094c565b506103f984827f6465736372697074696f6e00000000000000000000000000000000000000000061094c565b5061042584827f646174655f706c616e746174696f6e000000000000000000000000000000000061094c565b508080600101915050610342565b600191505092915050565b60065481565b60088054600181600116156101000203166002900480601f0160208091040260200160405190810160405280929190818152602001828054600181600116156101000203166002900480156104da5780601f106104af576101008083540402835291602001916104da565b820191906000526020600020905b8154815290600101906020018083116104bd57829003601f168201915b505050505081565b600a5481565b60095481565b8160056000826000191660001916815260200190815260200160002060009054906101000a900473ffffffffffffffffffffffffffffffffffffffff1673ffffffffffffffffffffffffffffffffffffffff163373ffffffffffffffffffffffffffffffffffffffff161415156105f3576040517f08c379a00000000000000000000000000000000000000000000000000000000081526004018080602001828103825260288152602001807f536f75726365206d75737420626520746865206f7261636c65206f662074686581526020017f207265717565737400000000000000000000000000000000000000000000000081525060400191505060405180910390fd5b60056000826000191660001916815260200190815260200160002060006101000a81549073ffffffffffffffffffffffffffffffffffffffff021916905580600019167f7cc135e0cebb02c3480ae5d74d377283180a2601f8f644edf7987b009316c63a60405160405180910390a2600c6000846000191660001916815260200190815260200160002060010154600a81600019169055507f6964000000000000000000000000000000000000000000000000000000000000600c60008560001916600019168152602001908152602001600020600101546000191614156107175781600b6000600c600087600019166000191681526020019081526020016000206000015481526020019081526020016000206000018160001916905550610947565b7f657373656e63655f696400000000000000000000000000000000000000000000600c60008560001916600019168152602001908152602001600020600101546000191614156107a35781600b6000600c600087600019166000191681526020019081526020016000206000015481526020019081526020016000206001018160001916905550610946565b7f70617263656c6c655f6964000000000000000000000000000000000000000000600c600085600019166000191681526020019081526020016000206001015460001916141561082f5781600b6000600c600087600019166000191681526020019081526020016000206000015481526020019081526020016000206002018160001916905550610945565b7f6465736372697074696f6e000000000000000000000000000000000000000000600c60008560001916600019168152602001908152602001600020600101546000191614156108bb5781600b6000600c600087600019166000191681526020019081526020016000206000015481526020019081526020016000206003018160001916905550610944565b7f646174655f706c616e746174696f6e0000000000000000000000000000000000600c60008560001916600019168152602001908152602001600020600101546000191614156109435781600b6000600c6000876000191660001916815260200190815260200160002060000154815260200190815260200160002060040181600019169055505b5b5b5b5b505050565b60006109566119e5565b6000856006816000191690555084600781905550610998863063fef6e4cb7c010000000000000000000000000000000000000000000000000000000002610b97565b9150610aa66040805190810160405280600381526020017f67657400000000000000000000000000000000000000000000000000000000008152506109dc87610bc8565b60405160200180807f687474703a2f2f707269766174652d34383662352d6c656f706f6c646a6f792e81526020017f6170696172792d6d6f636b2e636f6d2f666f72657374732f000000000000000081525060380182805190602001908083835b602083101515610a625780518252602082019150602081019050602083039250610a3d565b6001836020036101000a03801982511681845116808217855250505050505090500191505060405160208183030381529060405284610d1f9092919063ffffffff16565b610aaf84610d52565b60089080519060200190610ac4929190611a53565b50610b176040805190810160405280600481526020017f7061746800000000000000000000000000000000000000000000000000000000815250610b0786610d52565b84610d1f9092919063ffffffff16565b610b2c82670de0b6b3a7640000600102610f4e565b9050806009816000191690555060408051908101604052808681526020018560001916815250600c6000836000191660001916815260200190815260200160002060008201518160000155602082015181600101906000191690559050506001925050509392505050565b610b9f6119e5565b610ba76119e5565b610bbe85858584610f85909392919063ffffffff16565b9150509392505050565b60606000806060600080861415610c16576040805190810160405280600181526020017f30000000000000000000000000000000000000000000000000000000000000008152509450610d16565b8593505b600084141515610c40578280600101935050600a84811515610c3857fe5b049350610c1a565b826040519080825280601f01601f191660200182016040528015610c735781602001602082028038833980820191505090505b5091506001830390505b600086141515610d1257600a86811515610c9357fe5b066030017f010000000000000000000000000000000000000000000000000000000000000002828280600190039350815181101515610cce57fe5b9060200101907effffffffffffffffffffffffffffffffffffffffffffffffffffffffffffff1916908160001a905350600a86811515610d0a57fe5b049550610c7d565b8194505b50505050919050565b610d3682846080015161103f90919063ffffffff16565b610d4d81846080015161103f90919063ffffffff16565b505050565b6060806000806000606060206040519080825280601f01601f191660200182016040528015610d905781602001602082028038833980820191505090505b50945060009350600092505b6020831015610e5a578260080260020a876001900402600102915060007f010000000000000000000000000000000000000000000000000000000000000002827effffffffffffffffffffffffffffffffffffffffffffffffffffffffffffff1916141515610e4d57818585815181101515610e1457fe5b9060200101907effffffffffffffffffffffffffffffffffffffffffffffffffffffffffffff1916908160001a90535083806001019450505b8280600101935050610d9c565b836040519080825280601f01601f191660200182016040528015610e8d5781602001602082028038833980820191505090505b509050600092505b83831015610f41578483815181101515610eab57fe5b9060200101517f010000000000000000000000000000000000000000000000000000000000000090047f0100000000000000000000000000000000000000000000000000000000000000028184815181101515610f0457fe5b9060200101907effffffffffffffffffffffffffffffffffffffffffffffffffffffffffffff1916908160001a9053508280600101935050610e95565b8095505050505050919050565b6000610f7d600360009054906101000a900473ffffffffffffffffffffffffffffffffffffffff168484611064565b905092915050565b610f8d6119e5565b610f9d85608001516101006113f0565b50838560000190600019169081600019168152505082856020019073ffffffffffffffffffffffffffffffffffffffff16908173ffffffffffffffffffffffffffffffffffffffff16815250508185604001907bffffffffffffffffffffffffffffffffffffffffffffffffffffffff191690817bffffffffffffffffffffffffffffffffffffffffffffffffffffffff191681525050849050949350505050565b61104c826003835161144a565b61105f81836115a890919063ffffffff16565b505050565b600030600454604051602001808373ffffffffffffffffffffffffffffffffffffffff1673ffffffffffffffffffffffffffffffffffffffff166c01000000000000000000000000028152601401828152602001925050506040516020818303038152906040526040518082805190602001908083835b60208310151561110057805182526020820191506020810190506020830392506110db565b6001836020036101000a038019825116818451168082178552505050505050905001915050604051809103902090506004548360600181815250508360056000836000191660001916815260200190815260200160002060006101000a81548173ffffffffffffffffffffffffffffffffffffffff021916908373ffffffffffffffffffffffffffffffffffffffff16021790555080600019167fb5e6e01e79f91267dc17b4e6314d5d4d03593d2ceee0fbb452b750bd70ea5af960405160405180910390a2600260009054906101000a900473ffffffffffffffffffffffffffffffffffffffff1673ffffffffffffffffffffffffffffffffffffffff16634000aea0858461120f876115ca565b6040518463ffffffff167c0100000000000000000000000000000000000000000000000000000000028152600401808473ffffffffffffffffffffffffffffffffffffffff1673ffffffffffffffffffffffffffffffffffffffff16815260200183815260200180602001828103825283818151815260200191508051906020019080838360005b838110156112b2578082015181840152602081019050611297565b50505050905090810190601f1680156112df5780820380516001836020036101000a031916815260200191505b50945050505050602060405180830381600087803b15801561130057600080fd5b505af1158015611314573d6000803e3d6000fd5b505050506040513d602081101561132a57600080fd5b810190808051906020019092919050505015156113d5576040517f08c379a00000000000000000000000000000000000000000000000000000000081526004018080602001828103825260238152602001807f756e61626c6520746f207472616e73666572416e6443616c6c20746f206f726181526020017f636c65000000000000000000000000000000000000000000000000000000000081525060400191505060405180910390fd5b60016004600082825401925050819055508090509392505050565b6113f8611ad3565b600060208381151561140657fe5b061415156114235760208281151561141a57fe5b06602003820191505b81836020018181525050604051808452600081528281016020016040525082905092915050565b60178111151561147c576114768160058460ff169060020a0260ff1617846117f590919063ffffffff16565b506115a3565b60ff811115156114c3576114a6601860058460ff169060020a0217846117f590919063ffffffff16565b506114bd816001856118159092919063ffffffff16565b506115a2565b61ffff8111151561150b576114ee601960058460ff169060020a0217846117f590919063ffffffff16565b50611505816002856118159092919063ffffffff16565b506115a1565b63ffffffff8111151561155557611538601a60058460ff169060020a0217846117f590919063ffffffff16565b5061154f816004856118159092919063ffffffff16565b506115a0565b67ffffffffffffffff8111151561159f57611586601b60058460ff169060020a0217846117f590919063ffffffff16565b5061159d816008856118159092919063ffffffff16565b505b5b5b5b5b505050565b6115b0611ad3565b6115c283846000015151848551611837565b905092915050565b6060600360009054906101000a900473ffffffffffffffffffffffffffffffffffffffff1673ffffffffffffffffffffffffffffffffffffffff16634042994690507c01000000000000000000000000000000000000000000000000000000000260008084600001518560200151866040015187606001516001896080015160000151604051602401808973ffffffffffffffffffffffffffffffffffffffff1673ffffffffffffffffffffffffffffffffffffffff16815260200188815260200187600019166000191681526020018673ffffffffffffffffffffffffffffffffffffffff1673ffffffffffffffffffffffffffffffffffffffff168152602001857bffffffffffffffffffffffffffffffffffffffffffffffffffffffff19167bffffffffffffffffffffffffffffffffffffffffffffffffffffffff1916815260200184815260200183815260200180602001828103825283818151815260200191508051906020019080838360005b8381101561175857808201518184015260208101905061173d565b50505050905090810190601f1680156117855780820380516001836020036101000a031916815260200191505b509950505050505050505050604051602081830303815290604052907bffffffffffffffffffffffffffffffffffffffffffffffffffffffff19166020820180517bffffffffffffffffffffffffffffffffffffffffffffffffffffffff83818316178352505050509050919050565b6117fd611ad3565b61180d83846000015151846118f4565b905092915050565b61181d611ad3565b61182e848560000151518585611944565b90509392505050565b61183f611ad3565b60008060008551851115151561185457600080fd5b8760200151858801111561187f5761187e8860026118788b602001518b8a016119a5565b026119c1565b5b87518051886020830101945080898801111561189b5788870182525b60208801935050505b6020851015156118c957815183526020830192506020820191506020850394506118a4565b6001856020036101000a03905080198251168184511681811785525050879350505050949350505050565b6118fc611ad3565b83602001518310151561191b5761191a8460028660200151026119c1565b5b8351805160208583010184815381861415611937576001820183525b5050508390509392505050565b61194c611ad3565b60008560200151858401111561196c5761196b866002878601026119c1565b5b6001836101000a03905085518386820101858319825116178152815185880111156119975784870182525b505085915050949350505050565b6000818311156119b7578290506119bb565b8190505b92915050565b6060826000015190506119d483836113f0565b506119df83826115a8565b50505050565b60c06040519081016040528060008019168152602001600073ffffffffffffffffffffffffffffffffffffffff16815260200160007bffffffffffffffffffffffffffffffffffffffffffffffffffffffff1916815260200160008152602001611a4d611aed565b81525090565b828054600181600116156101000203166002900490600052602060002090601f016020900481019282601f10611a9457805160ff1916838001178555611ac2565b82800160010185558215611ac2579182015b82811115611ac1578251825591602001919060010190611aa6565b5b509050611acf9190611b07565b5090565b604080519081016040528060608152602001600081525090565b604080519081016040528060608152602001600081525090565b611b2991905b80821115611b25576000816000905550600101611b0d565b5090565b905600a165627a7a72305820d1b833f2e68a667b53787d21707ad6dd724c65066992495616367060973f8fe00029",
  "source": "pragma solidity ^0.4.24;\n\nimport \"chainlink/contracts/ChainlinkClient.sol\";\n\n// ChainlinkEcoTree inherits the Chainlinked contract to gain the\n// functionality of creating Chainlink requests.\ncontract ChainlinkEcoTree is ChainlinkClient {\n\n  bytes32 public accessible;\n  uint public accessible1;\n  string public accessible2;\n  bytes32 public accessible3;\n  bytes32 public accessible4;\n\n  struct Forest {\n    bytes32 id;\n    bytes32 essence_id;\n    bytes32 parcelle_id;\n    bytes32 description;\n    bytes32 date_plantation;\n  }\n\n  struct DataType {\n    uint256 forestId;\n    bytes32 typeName;\n  }\n\n  mapping (uint256 => Forest) public forests;\n  mapping (bytes32 => DataType) internal requestIdToDataType;\n\n  constructor(address _link, address _oracle) public {\n    // Set the address for the LINK token for the network.\n    if(_link == address(0)) {\n      // Useful for deploying to public networks.\n      setPublicChainlinkToken();\n    } else {\n      // Useful if you're deploying to a local network.\n      setChainlinkToken(_link);\n    }\n    // Set the oracle that will be used for making requests\n    require(\n      _oracle != address(0),\n      \"Please provide the address of a valid Chainlink oracle for the currently selected network.\"\n    );\n    setChainlinkOracle(_oracle);\n  }\n\n  function makeSingleRequest(bytes32 _jobId, uint i, bytes32 typeName) internal returns (bool success) {\n    // Takes a JobID, a callback address, and callback function\n    accessible = _jobId;\n    accessible1 = i;\n    Chainlink.Request memory req = buildChainlinkRequest(_jobId, this, this.fulfillForest.selector);\n    // A URL with the key \"get\" to the request parameters\n    req.add(\"get\", string(abi.encodePacked(\"http://private-486b5-leopoldjoy.apiary-mock.com/forests/\", uint2str(i))));\n    // Dot-delimited JSON key \"path\" to the desired parameters\n    accessible2 = bytes32ToString(typeName);\n    req.add(\"path\", bytes32ToString(typeName));\n    // Send the request with 1 LINK to the oracle contract\n    bytes32 requestId = sendChainlinkRequest(req, 1 * LINK);\n    accessible3 = requestId;\n    // Save mapping of request ID to the corrosponding forest ID and data type\n    requestIdToDataType[requestId] = DataType({forestId: i, typeName: typeName});\n\n    return true;\n  }\n  \n  // Creates a Chainlink request with the bytes32 job and returns the requestId\n  function requestForests(bytes32 _jobId, uint256 _numForests) public returns (bool success) {\n    for (uint i = 0; i < _numForests; i++) {\n      // Make request for ID field of this forest\n      makeSingleRequest(_jobId, i, \"id\");\n      // Make request for essence_id field of this forest\n      makeSingleRequest(_jobId, i, \"essence_id\");\n      // Make request for parcelle_id field of this forest\n      makeSingleRequest(_jobId, i, \"parcelle_id\");\n      // Make request for description field of this forest\n      makeSingleRequest(_jobId, i, \"description\");\n      // Make request for date_plantation field of this forest\n      makeSingleRequest(_jobId, i, \"date_plantation\");\n    }\n\n    return true;\n  }\n\n  // fulfillForest receives a bytes32 data type\n  function fulfillForest(bytes32 _requestId, bytes32 _forestDataField)\n    // Use recordChainlinkFulfillment to ensure only the requesting oracle can fulfill\n    public recordChainlinkFulfillment(_requestId) {\n    accessible4 = requestIdToDataType[_requestId].typeName;\n    // Set the forest's data based on retrieved forest ID\n    if (requestIdToDataType[_requestId].typeName == \"id\") {\n      forests[requestIdToDataType[_requestId].forestId].id = _forestDataField;\n    } else if (requestIdToDataType[_requestId].typeName == \"essence_id\") {\n      forests[requestIdToDataType[_requestId].forestId].essence_id = _forestDataField;\n    } else if (requestIdToDataType[_requestId].typeName == \"parcelle_id\") {\n      forests[requestIdToDataType[_requestId].forestId].parcelle_id = _forestDataField;\n    } else if (requestIdToDataType[_requestId].typeName == \"description\") {\n      forests[requestIdToDataType[_requestId].forestId].description = _forestDataField;\n    } else if (requestIdToDataType[_requestId].typeName == \"date_plantation\") {\n      forests[requestIdToDataType[_requestId].forestId].date_plantation = _forestDataField;\n    }\n  }\n\n  // Helper functions\n  function uint2str(uint i) internal pure returns (string){\n    if (i == 0) return \"0\";\n    uint j = i;\n    uint length;\n    while (j != 0){\n      length++;\n      j /= 10;\n    }\n    bytes memory bstr = new bytes(length);\n    uint k = length - 1;\n    while (i != 0){\n      bstr[k--] = byte(48 + i % 10);\n      i /= 10;\n    }\n    return string(bstr);\n  }\n\n  function bytes32ToString(bytes32 x) internal pure returns (string) {\n    bytes memory bytesString = new bytes(32);\n    uint charCount = 0;\n    for (uint j = 0; j < 32; j++) {\n      byte char = byte(bytes32(uint(x) * 2 ** (8 * j)));\n      if (char != 0) {\n        bytesString[charCount] = char;\n        charCount++;\n      }\n    }\n    bytes memory bytesStringTrimmed = new bytes(charCount);\n    for (j = 0; j < charCount; j++) {\n        bytesStringTrimmed[j] = bytesString[j];\n    }\n    return string(bytesStringTrimmed);\n  }\n}\n",
  "sourcePath": "/Users/leo/flyingcarpet/prediction-market/truffle-chainlink/contracts/ChainlinkEcoTree.sol",
  "compiler": {
    "name": "solc",
    "version": "0.4.24+commit.e67f0147.Emscripten.clang"
  },
  "schemaVersion": "3.0.11",
  "updatedAt": "2019-08-12T02:09:06.501Z",
  "devdoc": {
    "methods": {}
  },
  "userdoc": {
    "methods": {}
  }
}