{
  "contractName": "ChainlinkEcoTree",
  "abi": [
    {
      "constant": true,
      "inputs": [],
      "name": "forest",
      "outputs": [
        {
          "name": "",
          "type": "bytes32"
        }
      ],
      "payable": false,
      "stateMutability": "view",
      "type": "function"
    },
    {
      "inputs": [
        {
          "name": "_link",
          "type": "address"
        },
        {
          "name": "_oracle",
          "type": "address"
        }
      ],
      "payable": false,
      "stateMutability": "nonpayable",
      "type": "constructor"
    },
    {
      "anonymous": false,
      "inputs": [
        {
          "indexed": true,
          "name": "id",
          "type": "bytes32"
        }
      ],
      "name": "ChainlinkRequested",
      "type": "event"
    },
    {
      "anonymous": false,
      "inputs": [
        {
          "indexed": true,
          "name": "id",
          "type": "bytes32"
        }
      ],
      "name": "ChainlinkFulfilled",
      "type": "event"
    },
    {
      "anonymous": false,
      "inputs": [
        {
          "indexed": true,
          "name": "id",
          "type": "bytes32"
        }
      ],
      "name": "ChainlinkCancelled",
      "type": "event"
    },
    {
      "constant": false,
      "inputs": [
        {
          "name": "_jobId",
          "type": "bytes32"
        }
      ],
      "name": "requestForest",
      "outputs": [
        {
          "name": "requestId",
          "type": "bytes32"
        }
      ],
      "payable": false,
      "stateMutability": "nonpayable",
      "type": "function"
    },
    {
      "constant": false,
      "inputs": [
        {
          "name": "_requestId",
          "type": "bytes32"
        },
        {
          "name": "_forest",
          "type": "bytes32"
        }
      ],
      "name": "fulfillForest",
      "outputs": [],
      "payable": false,
      "stateMutability": "nonpayable",
      "type": "function"
    }
  ],
  "bytecode": "0x608060405260016004553480156200001657600080fd5b506040516040806200131b8339810180604052810190808051906020019092919080519060200190929190505050600073ffffffffffffffffffffffffffffffffffffffff168273ffffffffffffffffffffffffffffffffffffffff161415620000995762000093620001c8640100000000026401000000009004565b620000b4565b620000b38262000299640100000000026401000000009004565b5b600073ffffffffffffffffffffffffffffffffffffffff168173ffffffffffffffffffffffffffffffffffffffff1614151515620001a6576040517f08c379a000000000000000000000000000000000000000000000000000000000815260040180806020018281038252605a8152602001807f506c656173652070726f76696465207468652061646472657373206f6620612081526020017f76616c696420436861696e6c696e6b206f7261636c6520666f7220746865206381526020017f757272656e746c792073656c6563746564206e6574776f726b2e00000000000081525060600191505060405180910390fd5b620001c081620002dd640100000000026401000000009004565b505062000321565b6200029773c89bd4e1632d3a43cb03aaad5262cbe4038bc57173ffffffffffffffffffffffffffffffffffffffff166338cc48316040518163ffffffff167c0100000000000000000000000000000000000000000000000000000000028152600401602060405180830381600087803b1580156200024557600080fd5b505af11580156200025a573d6000803e3d6000fd5b505050506040513d60208110156200027157600080fd5b810190808051906020019092919050505062000299640100000000026401000000009004565b565b80600260006101000a81548173ffffffffffffffffffffffffffffffffffffffff021916908373ffffffffffffffffffffffffffffffffffffffff16021790555050565b80600360006101000a81548173ffffffffffffffffffffffffffffffffffffffff021916908373ffffffffffffffffffffffffffffffffffffffff16021790555050565b610fea80620003316000396000f300608060405260043610610057576000357c0100000000000000000000000000000000000000000000000000000000900463ffffffff1680637e64c8fb1461005c578063ad9490f31461008f578063fef6e4cb146100dc575b600080fd5b34801561006857600080fd5b5061007161011b565b60405180826000191660001916815260200191505060405180910390f35b34801561009b57600080fd5b506100be6004803603810190808035600019169060200190929190505050610121565b60405180826000191660001916815260200191505060405180910390f35b3480156100e857600080fd5b506101196004803603810190808035600019169060200190929190803560001916906020019092919050505061029d565b005b60065481565b600061012b610f1c565b610159833063fef6e4cb7c010000000000000000000000000000000000000000000000000000000002610421565b90506102016040805190810160405280600381526020017f6765740000000000000000000000000000000000000000000000000000000000815250606060405190810160405280603781526020017f687474703a2f2f707269766174652d34383662352d6c656f706f6c646a6f792e81526020017f6170696172792d6d6f636b2e636f6d2f666f7265737473000000000000000000815250836104529092919063ffffffff16565b6102806040805190810160405280600481526020017f70617468000000000000000000000000000000000000000000000000000000008152506040805190810160405280600481526020017f736f6d6500000000000000000000000000000000000000000000000000000000815250836104529092919063ffffffff16565b61029581670de0b6b3a7640000600102610485565b915050919050565b8160056000826000191660001916815260200190815260200160002060009054906101000a900473ffffffffffffffffffffffffffffffffffffffff1673ffffffffffffffffffffffffffffffffffffffff163373ffffffffffffffffffffffffffffffffffffffff161415156103a2576040517f08c379a00000000000000000000000000000000000000000000000000000000081526004018080602001828103825260288152602001807f536f75726365206d75737420626520746865206f7261636c65206f662074686581526020017f207265717565737400000000000000000000000000000000000000000000000081525060400191505060405180910390fd5b60056000826000191660001916815260200190815260200160002060006101000a81549073ffffffffffffffffffffffffffffffffffffffff021916905580600019167f7cc135e0cebb02c3480ae5d74d377283180a2601f8f644edf7987b009316c63a60405160405180910390a28160068160001916905550505050565b610429610f1c565b610431610f1c565b610448858585846104bc909392919063ffffffff16565b9150509392505050565b61046982846080015161057690919063ffffffff16565b61048081846080015161057690919063ffffffff16565b505050565b60006104b4600360009054906101000a900473ffffffffffffffffffffffffffffffffffffffff16848461059b565b905092915050565b6104c4610f1c565b6104d48560800151610100610927565b50838560000190600019169081600019168152505082856020019073ffffffffffffffffffffffffffffffffffffffff16908173ffffffffffffffffffffffffffffffffffffffff16815250508185604001907bffffffffffffffffffffffffffffffffffffffffffffffffffffffff191690817bffffffffffffffffffffffffffffffffffffffffffffffffffffffff191681525050849050949350505050565b6105838260038351610981565b6105968183610adf90919063ffffffff16565b505050565b600030600454604051602001808373ffffffffffffffffffffffffffffffffffffffff1673ffffffffffffffffffffffffffffffffffffffff166c01000000000000000000000000028152601401828152602001925050506040516020818303038152906040526040518082805190602001908083835b6020831015156106375780518252602082019150602081019050602083039250610612565b6001836020036101000a038019825116818451168082178552505050505050905001915050604051809103902090506004548360600181815250508360056000836000191660001916815260200190815260200160002060006101000a81548173ffffffffffffffffffffffffffffffffffffffff021916908373ffffffffffffffffffffffffffffffffffffffff16021790555080600019167fb5e6e01e79f91267dc17b4e6314d5d4d03593d2ceee0fbb452b750bd70ea5af960405160405180910390a2600260009054906101000a900473ffffffffffffffffffffffffffffffffffffffff1673ffffffffffffffffffffffffffffffffffffffff16634000aea0858461074687610b01565b6040518463ffffffff167c0100000000000000000000000000000000000000000000000000000000028152600401808473ffffffffffffffffffffffffffffffffffffffff1673ffffffffffffffffffffffffffffffffffffffff16815260200183815260200180602001828103825283818151815260200191508051906020019080838360005b838110156107e95780820151818401526020810190506107ce565b50505050905090810190601f1680156108165780820380516001836020036101000a031916815260200191505b50945050505050602060405180830381600087803b15801561083757600080fd5b505af115801561084b573d6000803e3d6000fd5b505050506040513d602081101561086157600080fd5b8101908080519060200190929190505050151561090c576040517f08c379a00000000000000000000000000000000000000000000000000000000081526004018080602001828103825260238152602001807f756e61626c6520746f207472616e73666572416e6443616c6c20746f206f726181526020017f636c65000000000000000000000000000000000000000000000000000000000081525060400191505060405180910390fd5b60016004600082825401925050819055508090509392505050565b61092f610f8a565b600060208381151561093d57fe5b0614151561095a5760208281151561095157fe5b06602003820191505b81836020018181525050604051808452600081528281016020016040525082905092915050565b6017811115156109b3576109ad8160058460ff169060020a0260ff161784610d2c90919063ffffffff16565b50610ada565b60ff811115156109fa576109dd601860058460ff169060020a021784610d2c90919063ffffffff16565b506109f481600185610d4c9092919063ffffffff16565b50610ad9565b61ffff81111515610a4257610a25601960058460ff169060020a021784610d2c90919063ffffffff16565b50610a3c81600285610d4c9092919063ffffffff16565b50610ad8565b63ffffffff81111515610a8c57610a6f601a60058460ff169060020a021784610d2c90919063ffffffff16565b50610a8681600485610d4c9092919063ffffffff16565b50610ad7565b67ffffffffffffffff81111515610ad657610abd601b60058460ff169060020a021784610d2c90919063ffffffff16565b50610ad481600885610d4c9092919063ffffffff16565b505b5b5b5b5b505050565b610ae7610f8a565b610af983846000015151848551610d6e565b905092915050565b6060600360009054906101000a900473ffffffffffffffffffffffffffffffffffffffff1673ffffffffffffffffffffffffffffffffffffffff16634042994690507c01000000000000000000000000000000000000000000000000000000000260008084600001518560200151866040015187606001516001896080015160000151604051602401808973ffffffffffffffffffffffffffffffffffffffff1673ffffffffffffffffffffffffffffffffffffffff16815260200188815260200187600019166000191681526020018673ffffffffffffffffffffffffffffffffffffffff1673ffffffffffffffffffffffffffffffffffffffff168152602001857bffffffffffffffffffffffffffffffffffffffffffffffffffffffff19167bffffffffffffffffffffffffffffffffffffffffffffffffffffffff1916815260200184815260200183815260200180602001828103825283818151815260200191508051906020019080838360005b83811015610c8f578082015181840152602081019050610c74565b50505050905090810190601f168015610cbc5780820380516001836020036101000a031916815260200191505b509950505050505050505050604051602081830303815290604052907bffffffffffffffffffffffffffffffffffffffffffffffffffffffff19166020820180517bffffffffffffffffffffffffffffffffffffffffffffffffffffffff83818316178352505050509050919050565b610d34610f8a565b610d448384600001515184610e2b565b905092915050565b610d54610f8a565b610d65848560000151518585610e7b565b90509392505050565b610d76610f8a565b600080600085518511151515610d8b57600080fd5b87602001518588011115610db657610db5886002610daf8b602001518b8a01610edc565b02610ef8565b5b875180518860208301019450808988011115610dd25788870182525b60208801935050505b602085101515610e005781518352602083019250602082019150602085039450610ddb565b6001856020036101000a03905080198251168184511681811785525050879350505050949350505050565b610e33610f8a565b836020015183101515610e5257610e51846002866020015102610ef8565b5b8351805160208583010184815381861415610e6e576001820183525b5050508390509392505050565b610e83610f8a565b600085602001518584011115610ea357610ea286600287860102610ef8565b5b6001836101000a0390508551838682010185831982511617815281518588011115610ece5784870182525b505085915050949350505050565b600081831115610eee57829050610ef2565b8190505b92915050565b606082600001519050610f0b8383610927565b50610f168382610adf565b50505050565b60c06040519081016040528060008019168152602001600073ffffffffffffffffffffffffffffffffffffffff16815260200160007bffffffffffffffffffffffffffffffffffffffffffffffffffffffff1916815260200160008152602001610f84610fa4565b81525090565b604080519081016040528060608152602001600081525090565b6040805190810160405280606081526020016000815250905600a165627a7a723058207cf20431a8f09f02b38d00e9fe8895e42468198175541c3b97e2aeaa792ba2b30029",
  "source": "pragma solidity ^0.4.24;\n\nimport \"chainlink/contracts/ChainlinkClient.sol\";\n\n// ChainlinkEcoTree inherits the Chainlinked contract to gain the\n// functionality of creating Chainlink requests.\ncontract ChainlinkEcoTree is ChainlinkClient {\n  bytes32 public forest;\n\n  constructor(address _link, address _oracle) public {\n    // Set the address for the LINK token for the network.\n    if(_link == address(0)) {\n      // Useful for deploying to public networks.\n      setPublicChainlinkToken();\n    } else {\n      // Useful if you're deploying to a local network.\n      setChainlinkToken(_link);\n    }\n    // Set the oracle that will be used for making requests\n    require(\n      _oracle != address(0),\n      \"Please provide the address of a valid Chainlink oracle for the currently selected network.\"\n    );\n    setChainlinkOracle(_oracle);\n  }\n  \n  // Creates a Chainlink request with the bytes32 job and returns the requestId\n  function requestForest(bytes32 _jobId) public returns (bytes32 requestId) {\n    // newRequest takes a JobID, a callback address, and callback function as input\n    Chainlink.Request memory req = buildChainlinkRequest(_jobId, this, this.fulfillForest.selector);\n    // Adds a URL with the key \"get\" to the request parameters\n    req.add(\"get\", \"http://private-486b5-leopoldjoy.apiary-mock.com/forests\");\n    // Adds a dot-delimited JSON path with the key \"path\" to the request parameters\n    req.add(\"path\", \"some\");\n    // Sends the request with 1 LINK to the oracle contract\n    requestId = sendChainlinkRequest(req, 1 * LINK);\n  }\n\n  // fulfillForest receives a bytes32 data type\n  function fulfillForest(bytes32 _requestId, bytes32 _forest)\n    // Use recordChainlinkFulfillment to ensure only the requesting oracle can fulfill\n    public recordChainlinkFulfillment(_requestId) {\n    forest = _forest;\n  }\n}\n",
  "sourcePath": "/Users/leo/flyingcarpet/prediction-market/truffle-chainlink/contracts/ChainlinkEcoTree.sol",
  "compiler": {
    "name": "solc",
    "version": "0.4.24+commit.e67f0147.Emscripten.clang"
  },
  "schemaVersion": "3.0.10",
  "updatedAt": "2019-08-08T12:04:11.673Z",
  "devdoc": {
    "methods": {}
  },
  "userdoc": {
    "methods": {}
  }
}