{
  "contractName": "ChainlinkEcoTree",
  "abi": [
    {
      "constant": true,
      "inputs": [
        {
          "name": "",
          "type": "uint256"
        }
      ],
      "name": "forests",
      "outputs": [
        {
          "name": "id",
          "type": "bytes32"
        },
        {
          "name": "essence_id",
          "type": "bytes32"
        },
        {
          "name": "parcelle_id",
          "type": "bytes32"
        },
        {
          "name": "description",
          "type": "bytes32"
        },
        {
          "name": "date_plantation",
          "type": "bytes32"
        }
      ],
      "payable": false,
      "stateMutability": "view",
      "type": "function"
    },
    {
      "inputs": [
        {
          "name": "_link",
          "type": "address"
        },
        {
          "name": "_oracle",
          "type": "address"
        }
      ],
      "payable": false,
      "stateMutability": "nonpayable",
      "type": "constructor"
    },
    {
      "anonymous": false,
      "inputs": [
        {
          "indexed": true,
          "name": "id",
          "type": "bytes32"
        }
      ],
      "name": "ChainlinkRequested",
      "type": "event"
    },
    {
      "anonymous": false,
      "inputs": [
        {
          "indexed": true,
          "name": "id",
          "type": "bytes32"
        }
      ],
      "name": "ChainlinkFulfilled",
      "type": "event"
    },
    {
      "anonymous": false,
      "inputs": [
        {
          "indexed": true,
          "name": "id",
          "type": "bytes32"
        }
      ],
      "name": "ChainlinkCancelled",
      "type": "event"
    },
    {
      "constant": false,
      "inputs": [
        {
          "name": "_jobId",
          "type": "bytes32"
        },
        {
          "name": "_numForests",
          "type": "uint256"
        }
      ],
      "name": "requestForests",
      "outputs": [
        {
          "name": "success",
          "type": "bool"
        }
      ],
      "payable": false,
      "stateMutability": "nonpayable",
      "type": "function"
    },
    {
      "constant": false,
      "inputs": [
        {
          "name": "_requestId",
          "type": "bytes32"
        },
        {
          "name": "_forestDataField",
          "type": "bytes32"
        }
      ],
      "name": "fulfillForest",
      "outputs": [],
      "payable": false,
      "stateMutability": "nonpayable",
      "type": "function"
    }
  ],
  "bytecode": "0x608060405260016004553480156200001657600080fd5b5060405160408062001b3e8339810180604052810190808051906020019092919080519060200190929190505050600073ffffffffffffffffffffffffffffffffffffffff168273ffffffffffffffffffffffffffffffffffffffff161415620000995762000093620001c8640100000000026401000000009004565b620000b4565b620000b38262000299640100000000026401000000009004565b5b600073ffffffffffffffffffffffffffffffffffffffff168173ffffffffffffffffffffffffffffffffffffffff1614151515620001a6576040517f08c379a000000000000000000000000000000000000000000000000000000000815260040180806020018281038252605a8152602001807f506c656173652070726f76696465207468652061646472657373206f6620612081526020017f76616c696420436861696e6c696e6b206f7261636c6520666f7220746865206381526020017f757272656e746c792073656c6563746564206e6574776f726b2e00000000000081525060600191505060405180910390fd5b620001c081620002dd640100000000026401000000009004565b505062000321565b6200029773c89bd4e1632d3a43cb03aaad5262cbe4038bc57173ffffffffffffffffffffffffffffffffffffffff166338cc48316040518163ffffffff167c0100000000000000000000000000000000000000000000000000000000028152600401602060405180830381600087803b1580156200024557600080fd5b505af11580156200025a573d6000803e3d6000fd5b505050506040513d60208110156200027157600080fd5b810190808051906020019092919050505062000299640100000000026401000000009004565b565b80600260006101000a81548173ffffffffffffffffffffffffffffffffffffffff021916908373ffffffffffffffffffffffffffffffffffffffff16021790555050565b80600360006101000a81548173ffffffffffffffffffffffffffffffffffffffff021916908373ffffffffffffffffffffffffffffffffffffffff16021790555050565b61180d80620003316000396000f300608060405260043610610057576000357c0100000000000000000000000000000000000000000000000000000000900463ffffffff1680632c4383161461005c5780639df4548e146100e1578063fef6e4cb14610134575b600080fd5b34801561006857600080fd5b5061008760048036038101908080359060200190929190505050610173565b60405180866000191660001916815260200185600019166000191681526020018460001916600019168152602001836000191660001916815260200182600019166000191681526020019550505050505060405180910390f35b3480156100ed57600080fd5b5061011a6004803603810190808035600019169060200190929190803590602001909291905050506101a9565b604051808215151515815260200191505060405180910390f35b34801561014057600080fd5b50610171600480360381019080803560001916906020019092919080356000191690602001909291905050506102ad565b005b60066020528060005260406000206000915090508060000154908060010154908060020154908060030154908060040154905085565b600080600090505b828110156102a2576101e484827f69640000000000000000000000000000000000000000000000000000000000006106e2565b5061021084827f657373656e63655f6964000000000000000000000000000000000000000000006106e2565b5061023c84827f70617263656c6c655f69640000000000000000000000000000000000000000006106e2565b5061026884827f6465736372697074696f6e0000000000000000000000000000000000000000006106e2565b5061029484827f646174655f706c616e746174696f6e00000000000000000000000000000000006106e2565b5080806001019150506101b1565b600191505092915050565b8160056000826000191660001916815260200190815260200160002060009054906101000a900473ffffffffffffffffffffffffffffffffffffffff1673ffffffffffffffffffffffffffffffffffffffff163373ffffffffffffffffffffffffffffffffffffffff161415156103b2576040517f08c379a00000000000000000000000000000000000000000000000000000000081526004018080602001828103825260288152602001807f536f75726365206d75737420626520746865206f7261636c65206f662074686581526020017f207265717565737400000000000000000000000000000000000000000000000081525060400191505060405180910390fd5b60056000826000191660001916815260200190815260200160002060006101000a81549073ffffffffffffffffffffffffffffffffffffffff021916905580600019167f7cc135e0cebb02c3480ae5d74d377283180a2601f8f644edf7987b009316c63a60405160405180910390a27f6964000000000000000000000000000000000000000000000000000000000000600760008560001916600019168152602001908152602001600020600101546000191614156104ad57816006600060076000876000191660001916815260200190815260200160002060000154815260200190815260200160002060000181600019169055506106dd565b7f657373656e63655f6964000000000000000000000000000000000000000000006007600085600019166000191681526020019081526020016000206001015460001916141561053957816006600060076000876000191660001916815260200190815260200160002060000154815260200190815260200160002060010181600019169055506106dc565b7f70617263656c6c655f6964000000000000000000000000000000000000000000600760008560001916600019168152602001908152602001600020600101546000191614156105c557816006600060076000876000191660001916815260200190815260200160002060000154815260200190815260200160002060020181600019169055506106db565b7f6465736372697074696f6e0000000000000000000000000000000000000000006007600085600019166000191681526020019081526020016000206001015460001916141561065157816006600060076000876000191660001916815260200190815260200160002060000154815260200190815260200160002060030181600019169055506106da565b7f646174655f706c616e746174696f6e0000000000000000000000000000000000600760008560001916600019168152602001908152602001600020600101546000191614156106d957816006600060076000876000191660001916815260200190815260200160002060000154815260200190815260200160002060040181600019169055505b5b5b5b5b505050565b60006106ec61173f565b600061071c863063fef6e4cb7c0100000000000000000000000000000000000000000000000000000000026108f1565b915061082a6040805190810160405280600381526020017f676574000000000000000000000000000000000000000000000000000000000081525061076087610922565b60405160200180807f687474703a2f2f707269766174652d34383662352d6c656f706f6c646a6f792e81526020017f6170696172792d6d6f636b2e636f6d2f666f72657374732f000000000000000081525060380182805190602001908083835b6020831015156107e657805182526020820191506020810190506020830392506107c1565b6001836020036101000a03801982511681845116808217855250505050505090500191505060405160208183030381529060405284610a799092919063ffffffff16565b61087c6040805190810160405280600481526020017f706174680000000000000000000000000000000000000000000000000000000081525061086c86610aac565b84610a799092919063ffffffff16565b61089182670de0b6b3a7640000600102610ca8565b90506040805190810160405280868152602001856000191681525060076000836000191660001916815260200190815260200160002060008201518160000155602082015181600101906000191690559050506001925050509392505050565b6108f961173f565b61090161173f565b61091885858584610cdf909392919063ffffffff16565b9150509392505050565b60606000806060600080861415610970576040805190810160405280600181526020017f30000000000000000000000000000000000000000000000000000000000000008152509450610a70565b8593505b60008414151561099a578280600101935050600a8481151561099257fe5b049350610974565b826040519080825280601f01601f1916602001820160405280156109cd5781602001602082028038833980820191505090505b5091506001830390505b600086141515610a6c57600a868115156109ed57fe5b066030017f010000000000000000000000000000000000000000000000000000000000000002828280600190039350815181101515610a2857fe5b9060200101907effffffffffffffffffffffffffffffffffffffffffffffffffffffffffffff1916908160001a905350600a86811515610a6457fe5b0495506109d7565b8194505b50505050919050565b610a90828460800151610d9990919063ffffffff16565b610aa7818460800151610d9990919063ffffffff16565b505050565b6060806000806000606060206040519080825280601f01601f191660200182016040528015610aea5781602001602082028038833980820191505090505b50945060009350600092505b6020831015610bb4578260080260020a876001900402600102915060007f010000000000000000000000000000000000000000000000000000000000000002827effffffffffffffffffffffffffffffffffffffffffffffffffffffffffffff1916141515610ba757818585815181101515610b6e57fe5b9060200101907effffffffffffffffffffffffffffffffffffffffffffffffffffffffffffff1916908160001a90535083806001019450505b8280600101935050610af6565b836040519080825280601f01601f191660200182016040528015610be75781602001602082028038833980820191505090505b509050600092505b83831015610c9b578483815181101515610c0557fe5b9060200101517f010000000000000000000000000000000000000000000000000000000000000090047f0100000000000000000000000000000000000000000000000000000000000000028184815181101515610c5e57fe5b9060200101907effffffffffffffffffffffffffffffffffffffffffffffffffffffffffffff1916908160001a9053508280600101935050610bef565b8095505050505050919050565b6000610cd7600360009054906101000a900473ffffffffffffffffffffffffffffffffffffffff168484610dbe565b905092915050565b610ce761173f565b610cf7856080015161010061114a565b50838560000190600019169081600019168152505082856020019073ffffffffffffffffffffffffffffffffffffffff16908173ffffffffffffffffffffffffffffffffffffffff16815250508185604001907bffffffffffffffffffffffffffffffffffffffffffffffffffffffff191690817bffffffffffffffffffffffffffffffffffffffffffffffffffffffff191681525050849050949350505050565b610da682600383516111a4565b610db9818361130290919063ffffffff16565b505050565b600030600454604051602001808373ffffffffffffffffffffffffffffffffffffffff1673ffffffffffffffffffffffffffffffffffffffff166c01000000000000000000000000028152601401828152602001925050506040516020818303038152906040526040518082805190602001908083835b602083101515610e5a5780518252602082019150602081019050602083039250610e35565b6001836020036101000a038019825116818451168082178552505050505050905001915050604051809103902090506004548360600181815250508360056000836000191660001916815260200190815260200160002060006101000a81548173ffffffffffffffffffffffffffffffffffffffff021916908373ffffffffffffffffffffffffffffffffffffffff16021790555080600019167fb5e6e01e79f91267dc17b4e6314d5d4d03593d2ceee0fbb452b750bd70ea5af960405160405180910390a2600260009054906101000a900473ffffffffffffffffffffffffffffffffffffffff1673ffffffffffffffffffffffffffffffffffffffff16634000aea08584610f6987611324565b6040518463ffffffff167c0100000000000000000000000000000000000000000000000000000000028152600401808473ffffffffffffffffffffffffffffffffffffffff1673ffffffffffffffffffffffffffffffffffffffff16815260200183815260200180602001828103825283818151815260200191508051906020019080838360005b8381101561100c578082015181840152602081019050610ff1565b50505050905090810190601f1680156110395780820380516001836020036101000a031916815260200191505b50945050505050602060405180830381600087803b15801561105a57600080fd5b505af115801561106e573d6000803e3d6000fd5b505050506040513d602081101561108457600080fd5b8101908080519060200190929190505050151561112f576040517f08c379a00000000000000000000000000000000000000000000000000000000081526004018080602001828103825260238152602001807f756e61626c6520746f207472616e73666572416e6443616c6c20746f206f726181526020017f636c65000000000000000000000000000000000000000000000000000000000081525060400191505060405180910390fd5b60016004600082825401925050819055508090509392505050565b6111526117ad565b600060208381151561116057fe5b0614151561117d5760208281151561117457fe5b06602003820191505b81836020018181525050604051808452600081528281016020016040525082905092915050565b6017811115156111d6576111d08160058460ff169060020a0260ff16178461154f90919063ffffffff16565b506112fd565b60ff8111151561121d57611200601860058460ff169060020a02178461154f90919063ffffffff16565b506112178160018561156f9092919063ffffffff16565b506112fc565b61ffff8111151561126557611248601960058460ff169060020a02178461154f90919063ffffffff16565b5061125f8160028561156f9092919063ffffffff16565b506112fb565b63ffffffff811115156112af57611292601a60058460ff169060020a02178461154f90919063ffffffff16565b506112a98160048561156f9092919063ffffffff16565b506112fa565b67ffffffffffffffff811115156112f9576112e0601b60058460ff169060020a02178461154f90919063ffffffff16565b506112f78160088561156f9092919063ffffffff16565b505b5b5b5b5b505050565b61130a6117ad565b61131c83846000015151848551611591565b905092915050565b6060600360009054906101000a900473ffffffffffffffffffffffffffffffffffffffff1673ffffffffffffffffffffffffffffffffffffffff16634042994690507c01000000000000000000000000000000000000000000000000000000000260008084600001518560200151866040015187606001516001896080015160000151604051602401808973ffffffffffffffffffffffffffffffffffffffff1673ffffffffffffffffffffffffffffffffffffffff16815260200188815260200187600019166000191681526020018673ffffffffffffffffffffffffffffffffffffffff1673ffffffffffffffffffffffffffffffffffffffff168152602001857bffffffffffffffffffffffffffffffffffffffffffffffffffffffff19167bffffffffffffffffffffffffffffffffffffffffffffffffffffffff1916815260200184815260200183815260200180602001828103825283818151815260200191508051906020019080838360005b838110156114b2578082015181840152602081019050611497565b50505050905090810190601f1680156114df5780820380516001836020036101000a031916815260200191505b509950505050505050505050604051602081830303815290604052907bffffffffffffffffffffffffffffffffffffffffffffffffffffffff19166020820180517bffffffffffffffffffffffffffffffffffffffffffffffffffffffff83818316178352505050509050919050565b6115576117ad565b611567838460000151518461164e565b905092915050565b6115776117ad565b61158884856000015151858561169e565b90509392505050565b6115996117ad565b6000806000855185111515156115ae57600080fd5b876020015185880111156115d9576115d88860026115d28b602001518b8a016116ff565b0261171b565b5b8751805188602083010194508089880111156115f55788870182525b60208801935050505b60208510151561162357815183526020830192506020820191506020850394506115fe565b6001856020036101000a03905080198251168184511681811785525050879350505050949350505050565b6116566117ad565b8360200151831015156116755761167484600286602001510261171b565b5b8351805160208583010184815381861415611691576001820183525b5050508390509392505050565b6116a66117ad565b6000856020015185840111156116c6576116c58660028786010261171b565b5b6001836101000a03905085518386820101858319825116178152815185880111156116f15784870182525b505085915050949350505050565b60008183111561171157829050611715565b8190505b92915050565b60608260000151905061172e838361114a565b506117398382611302565b50505050565b60c06040519081016040528060008019168152602001600073ffffffffffffffffffffffffffffffffffffffff16815260200160007bffffffffffffffffffffffffffffffffffffffffffffffffffffffff19168152602001600081526020016117a76117c7565b81525090565b604080519081016040528060608152602001600081525090565b6040805190810160405280606081526020016000815250905600a165627a7a723058203f941acd11fbb29f61b0fddece17342fe84c5f32161a346010b09fa008a9ed030029",
  "source": "pragma solidity ^0.4.24;\n\nimport \"chainlink/contracts/ChainlinkClient.sol\";\n\n// ChainlinkEcoTree inherits the Chainlinked contract to gain the\n// functionality of creating Chainlink requests.\ncontract ChainlinkEcoTree is ChainlinkClient {\n\n  struct Forest {\n    bytes32 id;\n    bytes32 essence_id;\n    bytes32 parcelle_id;\n    bytes32 description;\n    bytes32 date_plantation;\n  }\n\n  struct DataType {\n    uint256 forestId;\n    bytes32 typeName;\n  }\n\n  mapping (uint256 => Forest) public forests;\n  mapping (bytes32 => DataType) internal requestIdToDataType;\n\n  constructor(address _link, address _oracle) public {\n    // Set the address for the LINK token for the network.\n    if(_link == address(0)) {\n      // Useful for deploying to public networks.\n      setPublicChainlinkToken();\n    } else {\n      // Useful if you're deploying to a local network.\n      setChainlinkToken(_link);\n    }\n    // Set the oracle that will be used for making requests\n    require(\n      _oracle != address(0),\n      \"Please provide the address of a valid Chainlink oracle for the currently selected network.\"\n    );\n    setChainlinkOracle(_oracle);\n  }\n\n  function makeSingleRequest(bytes32 _jobId, uint i, bytes32 typeName) internal returns (bool success) {\n    // Takes a JobID, a callback address, and callback function\n    Chainlink.Request memory req = buildChainlinkRequest(_jobId, this, this.fulfillForest.selector);\n    // A URL with the key \"get\" to the request parameters\n    req.add(\"get\", string(abi.encodePacked(\"http://private-486b5-leopoldjoy.apiary-mock.com/forests/\", uint2str(i))));\n    // Dot-delimited JSON key \"path\" to the desired parameters\n    req.add(\"path\", bytes32ToString(typeName));\n    // Send the request with 1 LINK to the oracle contract\n    bytes32 requestId = sendChainlinkRequest(req, 1 * LINK);\n    // Save mapping of request ID to the corrosponding forest ID and data type\n    requestIdToDataType[requestId] = DataType({forestId: i, typeName: typeName});\n\n    return true;\n  }\n  \n  // Creates a Chainlink request with the bytes32 job and returns the requestId\n  function requestForests(bytes32 _jobId, uint256 _numForests) public returns (bool success) {\n    for (uint i = 0; i < _numForests; i++) {\n      // Make request for ID field of this forest\n      makeSingleRequest(_jobId, i, \"id\");\n      // Make request for essence_id field of this forest\n      makeSingleRequest(_jobId, i, \"essence_id\");\n      // Make request for parcelle_id field of this forest\n      makeSingleRequest(_jobId, i, \"parcelle_id\");\n      // Make request for description field of this forest\n      makeSingleRequest(_jobId, i, \"description\");\n      // Make request for date_plantation field of this forest\n      makeSingleRequest(_jobId, i, \"date_plantation\");\n    }\n\n    return true;\n  }\n\n  // fulfillForest receives a bytes32 data type\n  function fulfillForest(bytes32 _requestId, bytes32 _forestDataField)\n    // Use recordChainlinkFulfillment to ensure only the requesting oracle can fulfill\n    public recordChainlinkFulfillment(_requestId) {\n    // Set the forest's data field based on the fulfilled data and its type\n    if (requestIdToDataType[_requestId].typeName == \"id\") {\n      forests[requestIdToDataType[_requestId].forestId].id = _forestDataField;\n    } else if (requestIdToDataType[_requestId].typeName == \"essence_id\") {\n      forests[requestIdToDataType[_requestId].forestId].essence_id = _forestDataField;\n    } else if (requestIdToDataType[_requestId].typeName == \"parcelle_id\") {\n      forests[requestIdToDataType[_requestId].forestId].parcelle_id = _forestDataField;\n    } else if (requestIdToDataType[_requestId].typeName == \"description\") {\n      forests[requestIdToDataType[_requestId].forestId].description = _forestDataField;\n    } else if (requestIdToDataType[_requestId].typeName == \"date_plantation\") {\n      forests[requestIdToDataType[_requestId].forestId].date_plantation = _forestDataField;\n    }\n  }\n\n  /* \n   * HELPER FUNCTIONS\n   */\n  function uint2str(uint i) internal pure returns (string){\n    if (i == 0) return \"0\";\n    uint j = i;\n    uint length;\n    while (j != 0){\n      length++;\n      j /= 10;\n    }\n    bytes memory bstr = new bytes(length);\n    uint k = length - 1;\n    while (i != 0){\n      bstr[k--] = byte(48 + i % 10);\n      i /= 10;\n    }\n    return string(bstr);\n  }\n\n  function bytes32ToString(bytes32 x) internal pure returns (string) {\n    bytes memory bytesString = new bytes(32);\n    uint charCount = 0;\n    for (uint j = 0; j < 32; j++) {\n      byte char = byte(bytes32(uint(x) * 2 ** (8 * j)));\n      if (char != 0) {\n        bytesString[charCount] = char;\n        charCount++;\n      }\n    }\n    bytes memory bytesStringTrimmed = new bytes(charCount);\n    for (j = 0; j < charCount; j++) {\n        bytesStringTrimmed[j] = bytesString[j];\n    }\n    return string(bytesStringTrimmed);\n  }\n}\n",
  "sourcePath": "/Users/leo/flyingcarpet/prediction-market/truffle-chainlink/contracts/ChainlinkEcoTree.sol",
  "compiler": {
    "name": "solc",
    "version": "0.4.24+commit.e67f0147.Emscripten.clang"
  },
  "schemaVersion": "3.0.11",
  "updatedAt": "2019-09-09T21:57:52.637Z",
  "devdoc": {
    "methods": {}
  },
  "userdoc": {
    "methods": {}
  }
}