{
  "contractName": "DaiTubStandin",
  "abi": [
    {
      "constant": true,
      "inputs": [],
      "name": "fee",
      "outputs": [
        {
          "name": "",
          "type": "uint256"
        }
      ],
      "payable": false,
      "stateMutability": "view",
      "type": "function"
    }
  ],
  "bytecode": "0x6080604052348015600f57600080fd5b5060a68061001e6000396000f3fe6080604052600436106039576000357c010000000000000000000000000000000000000000000000000000000090048063ddca3f4314603e575b600080fd5b348015604957600080fd5b5060506066565b6040518082815260200191505060405180910390f35b60006b033b2e3ce6c84b886361607c90509056fea165627a7a72305820f12b067ab5927bdec48d4eec83ee03b446846e58757115e0516496d2ab257a190029",
  "source": "pragma solidity ^0.5.1;\n\nimport { IDaiTub } from \"./DaiStabilityFeeOracle.sol\";\n\ncontract DaiTubStandin is IDaiTub {\n    function fee() external view returns (uint) {\n        // 1.175^(1/(60*60*24*365)) rounded to 27 decimal places\n        // corresponds to a 17.5% stability fee\n        return 1000000005113779426955452540;\n    }\n}\n",
  "sourcePath": "/Users/leo/flyingcarpet/prediction-market/contracts/DaiTubStandin.sol",
  "compiler": {
    "name": "solc",
    "version": "0.5.1+commit.c8a2cb62.Emscripten.clang"
  },
  "schemaVersion": "3.0.18",
  "updatedAt": "2019-12-20T11:45:35.901Z",
  "devdoc": {
    "methods": {}
  },
  "userdoc": {
    "methods": {}
  }
}