{
  "contractName": "DifficultyOracle",
  "abi": [
    {
      "constant": true,
      "inputs": [],
      "name": "pmSystem",
      "outputs": [
        {
          "name": "",
          "type": "address"
        }
      ],
      "payable": false,
      "stateMutability": "view",
      "type": "function"
    },
    {
      "constant": false,
      "inputs": [],
      "name": "resolveValue",
      "outputs": [],
      "payable": false,
      "stateMutability": "nonpayable",
      "type": "function"
    },
    {
      "constant": true,
      "inputs": [],
      "name": "targetValue",
      "outputs": [
        {
          "name": "",
          "type": "uint256"
        }
      ],
      "payable": false,
      "stateMutability": "view",
      "type": "function"
    },
    {
      "constant": true,
      "inputs": [],
      "name": "questionId",
      "outputs": [
        {
          "name": "",
          "type": "bytes32"
        }
      ],
      "payable": false,
      "stateMutability": "view",
      "type": "function"
    },
    {
      "constant": true,
      "inputs": [],
      "name": "resolutionTime",
      "outputs": [
        {
          "name": "",
          "type": "uint256"
        }
      ],
      "payable": false,
      "stateMutability": "view",
      "type": "function"
    },
    {
      "inputs": [
        {
          "name": "pmSystem",
          "type": "address"
        },
        {
          "name": "resolutionTime",
          "type": "uint256"
        },
        {
          "name": "difficultyTarget",
          "type": "uint256"
        },
        {
          "name": "questionId",
          "type": "bytes32"
        }
      ],
      "payable": false,
      "stateMutability": "nonpayable",
      "type": "constructor"
    },
    {
      "anonymous": false,
      "inputs": [
        {
          "indexed": false,
          "name": "resolutionTime",
          "type": "uint256"
        },
        {
          "indexed": false,
          "name": "currentTime",
          "type": "uint256"
        },
        {
          "indexed": false,
          "name": "value",
          "type": "uint256"
        }
      ],
      "name": "ResolutionSuccessful",
      "type": "event"
    }
  ],
  "bytecode": "0x608060405234801561001057600080fd5b506040516080806106298339810180604052608081101561003057600080fd5b810190808051906020019092919080519060200190929190805190602001909291908051906020019092919050505083838383836000806101000a81548173ffffffffffffffffffffffffffffffffffffffff021916908373ffffffffffffffffffffffffffffffffffffffff160217905550826001819055508160028190555080600381905550505050505050505061055a806100cf6000396000f3fe608060405260043610610067576000357c01000000000000000000000000000000000000000000000000000000009004806305be8b2c1461006c57806314685929146100c357806341b0c9ba146100da578063b06a5c5214610105578063f3e41e9014610130575b600080fd5b34801561007857600080fd5b5061008161015b565b604051808273ffffffffffffffffffffffffffffffffffffffff1673ffffffffffffffffffffffffffffffffffffffff16815260200191505060405180910390f35b3480156100cf57600080fd5b506100d8610180565b005b3480156100e657600080fd5b506100ef610514565b6040518082815260200191505060405180910390f35b34801561011157600080fd5b5061011a61051a565b6040518082815260200191505060405180910390f35b34801561013c57600080fd5b50610145610520565b6040518082815260200191505060405180910390f35b6000809054906101000a900473ffffffffffffffffffffffffffffffffffffffff1681565b6001544210151515610220576040517f08c379a000000000000000000000000000000000000000000000000000000000815260040180806020018281038252603b8152602001807f506c65617365207375626d69742061207265736f6c7574696f6e20647572696e81526020017f672074686520636f72726563742074696d6520696e74657276616c000000000081525060400191505060405180910390fd5b600061022a610526565b9050600254811115610381576000809054906101000a900473ffffffffffffffffffffffffffffffffffffffff1673ffffffffffffffffffffffffffffffffffffffff16635dd8085560035460016000604051602001808360ff1681526020018260ff168152602001925050506040516020818303038152906040526040518363ffffffff167c01000000000000000000000000000000000000000000000000000000000281526004018083815260200180602001828103825283818151815260200191508051906020019080838360005b838110156103175780820151818401526020810190506102fc565b50505050905090810190601f1680156103445780820380516001836020036101000a031916815260200191505b509350505050600060405180830381600087803b15801561036457600080fd5b505af1158015610378573d6000803e3d6000fd5b505050506104c8565b6000809054906101000a900473ffffffffffffffffffffffffffffffffffffffff1673ffffffffffffffffffffffffffffffffffffffff16635dd8085560035460006001604051602001808360ff1681526020018260ff168152602001925050506040516020818303038152906040526040518363ffffffff167c01000000000000000000000000000000000000000000000000000000000281526004018083815260200180602001828103825283818151815260200191508051906020019080838360005b83811015610462578082015181840152602081019050610447565b50505050905090810190601f16801561048f5780820380516001836020036101000a031916815260200191505b509350505050600060405180830381600087803b1580156104af57600080fd5b505af11580156104c3573d6000803e3d6000fd5b505050505b7fd60f27d6ed7f097522f99624c010efabe0629a1f69468e2c97ab84ff445510d8600154428360405180848152602001838152602001828152602001935050505060405180910390a150565b60025481565b60035481565b60015481565b60004490509056fea165627a7a72305820377dfc056c422db907bcfc51ce3281c0a7b5365d9c985e2176103e68b74363010029",
  "source": "pragma solidity ^0.5.1;\n\nimport { PredictionMarketSystem } from \"@gnosis.pm/hg-contracts/contracts/PredictionMarketSystem.sol\";\nimport { TargetValueOracle } from \"./TargetValueOracle.sol\";\n\ncontract DifficultyOracle is TargetValueOracle {\n    constructor (\n        PredictionMarketSystem pmSystem,\n        uint resolutionTime,\n        uint difficultyTarget,\n        bytes32 questionId\n    ) public TargetValueOracle(pmSystem, resolutionTime, difficultyTarget, questionId) {}\n\n    function readValue() internal returns(uint) {\n        return block.difficulty;\n    }\n}\n",
  "sourcePath": "/Users/leo/flyingcarpet/prediction-market/contracts/DifficultyOracle.sol",
  "compiler": {
    "name": "solc",
    "version": "0.5.1+commit.c8a2cb62.Emscripten.clang"
  },
  "schemaVersion": "3.0.18",
  "updatedAt": "2019-12-09T06:29:31.238Z",
  "devdoc": {
    "methods": {
      "resolveValue()": {
        "details": "Triggers an oracle report. If the transaction occurs within the prescribed valid time window, the oracle will attempt to read a value and report a result to the prediction market system. The result reported will be two EVM words (2*32=64 bytes). If the witnessed value exceeds the target value, the first word will be 1 and the second will be 0. Otherwise, if the witnessed value is less than or equal to the target value, the first word will be 0 and the second will be 1. ",
        "return": "value witnessed by this oracle"
      }
    }
  },
  "userdoc": {
    "methods": {}
  }
}