{
  "contractName": "DutchXTokenPriceOracle",
  "abi": [
    {
      "constant": true,
      "inputs": [],
      "name": "pmSystem",
      "outputs": [
        {
          "name": "",
          "type": "address"
        }
      ],
      "payable": false,
      "stateMutability": "view",
      "type": "function"
    },
    {
      "constant": false,
      "inputs": [],
      "name": "resolveValue",
      "outputs": [],
      "payable": false,
      "stateMutability": "nonpayable",
      "type": "function"
    },
    {
      "constant": true,
      "inputs": [],
      "name": "dutchX",
      "outputs": [
        {
          "name": "",
          "type": "address"
        }
      ],
      "payable": false,
      "stateMutability": "view",
      "type": "function"
    },
    {
      "constant": true,
      "inputs": [],
      "name": "targetValue",
      "outputs": [
        {
          "name": "",
          "type": "uint256"
        }
      ],
      "payable": false,
      "stateMutability": "view",
      "type": "function"
    },
    {
      "constant": true,
      "inputs": [],
      "name": "questionId",
      "outputs": [
        {
          "name": "",
          "type": "bytes32"
        }
      ],
      "payable": false,
      "stateMutability": "view",
      "type": "function"
    },
    {
      "constant": true,
      "inputs": [],
      "name": "resolutionTime",
      "outputs": [
        {
          "name": "",
          "type": "uint256"
        }
      ],
      "payable": false,
      "stateMutability": "view",
      "type": "function"
    },
    {
      "constant": true,
      "inputs": [],
      "name": "token",
      "outputs": [
        {
          "name": "",
          "type": "address"
        }
      ],
      "payable": false,
      "stateMutability": "view",
      "type": "function"
    },
    {
      "inputs": [
        {
          "name": "pmSystem",
          "type": "address"
        },
        {
          "name": "resolutionTime",
          "type": "uint256"
        },
        {
          "name": "difficultyTarget",
          "type": "uint256"
        },
        {
          "name": "questionId",
          "type": "bytes32"
        },
        {
          "name": "_dutchX",
          "type": "address"
        },
        {
          "name": "_token",
          "type": "address"
        }
      ],
      "payable": false,
      "stateMutability": "nonpayable",
      "type": "constructor"
    },
    {
      "anonymous": false,
      "inputs": [
        {
          "indexed": false,
          "name": "resolutionTime",
          "type": "uint256"
        },
        {
          "indexed": false,
          "name": "currentTime",
          "type": "uint256"
        },
        {
          "indexed": false,
          "name": "value",
          "type": "uint256"
        }
      ],
      "name": "ResolutionSuccessful",
      "type": "event"
    }
  ],
  "bytecode": "0x608060405234801561001057600080fd5b5060405160c080610b11833981018060405260c081101561003057600080fd5b8101908080519060200190929190805190602001909291908051906020019092919080519060200190929190805190602001909291908051906020019092919050505085858585836000806101000a81548173ffffffffffffffffffffffffffffffffffffffff021916908373ffffffffffffffffffffffffffffffffffffffff1602179055508260018190555081600281905550806003819055505050505081600460006101000a81548173ffffffffffffffffffffffffffffffffffffffff021916908373ffffffffffffffffffffffffffffffffffffffff16021790555080600560006101000a81548173ffffffffffffffffffffffffffffffffffffffff021916908373ffffffffffffffffffffffffffffffffffffffff1602179055505050505050506109aa806101676000396000f3fe60806040526004361061007d576000357c01000000000000000000000000000000000000000000000000000000009004806305be8b2c1461008257806314685929146100d957806325071db0146100f057806341b0c9ba14610147578063b06a5c5214610172578063f3e41e901461019d578063fc0c546a146101c8575b600080fd5b34801561008e57600080fd5b5061009761021f565b604051808273ffffffffffffffffffffffffffffffffffffffff1673ffffffffffffffffffffffffffffffffffffffff16815260200191505060405180910390f35b3480156100e557600080fd5b506100ee610244565b005b3480156100fc57600080fd5b506101056105d8565b604051808273ffffffffffffffffffffffffffffffffffffffff1673ffffffffffffffffffffffffffffffffffffffff16815260200191505060405180910390f35b34801561015357600080fd5b5061015c6105fe565b6040518082815260200191505060405180910390f35b34801561017e57600080fd5b50610187610604565b6040518082815260200191505060405180910390f35b3480156101a957600080fd5b506101b261060a565b6040518082815260200191505060405180910390f35b3480156101d457600080fd5b506101dd610610565b604051808273ffffffffffffffffffffffffffffffffffffffff1673ffffffffffffffffffffffffffffffffffffffff16815260200191505060405180910390f35b6000809054906101000a900473ffffffffffffffffffffffffffffffffffffffff1681565b60015442101515156102e4576040517f08c379a000000000000000000000000000000000000000000000000000000000815260040180806020018281038252603b8152602001807f506c65617365207375626d69742061207265736f6c7574696f6e20647572696e81526020017f672074686520636f72726563742074696d6520696e74657276616c000000000081525060400191505060405180910390fd5b60006102ee610636565b9050600254811115610445576000809054906101000a900473ffffffffffffffffffffffffffffffffffffffff1673ffffffffffffffffffffffffffffffffffffffff16635dd8085560035460016000604051602001808360ff1681526020018260ff168152602001925050506040516020818303038152906040526040518363ffffffff167c01000000000000000000000000000000000000000000000000000000000281526004018083815260200180602001828103825283818151815260200191508051906020019080838360005b838110156103db5780820151818401526020810190506103c0565b50505050905090810190601f1680156104085780820380516001836020036101000a031916815260200191505b509350505050600060405180830381600087803b15801561042857600080fd5b505af115801561043c573d6000803e3d6000fd5b5050505061058c565b6000809054906101000a900473ffffffffffffffffffffffffffffffffffffffff1673ffffffffffffffffffffffffffffffffffffffff16635dd8085560035460006001604051602001808360ff1681526020018260ff168152602001925050506040516020818303038152906040526040518363ffffffff167c01000000000000000000000000000000000000000000000000000000000281526004018083815260200180602001828103825283818151815260200191508051906020019080838360005b8381101561052657808201518184015260208101905061050b565b50505050905090810190601f1680156105535780820380516001836020036101000a031916815260200191505b509350505050600060405180830381600087803b15801561057357600080fd5b505af1158015610587573d6000803e3d6000fd5b505050505b7fd60f27d6ed7f097522f99624c010efabe0629a1f69468e2c97ab84ff445510d8600154428360405180848152602001838152602001828152602001935050505060405180910390a150565b600460009054906101000a900473ffffffffffffffffffffffffffffffffffffffff1681565b60025481565b60035481565b60015481565b600560009054906101000a900473ffffffffffffffffffffffffffffffffffffffff1681565b600080600460009054906101000a900473ffffffffffffffffffffffffffffffffffffffff1673ffffffffffffffffffffffffffffffffffffffff1663706eb3ab6040518163ffffffff167c010000000000000000000000000000000000000000000000000000000002815260040160206040518083038186803b1580156106bd57600080fd5b505afa1580156106d1573d6000803e3d6000fd5b505050506040513d60208110156106e757600080fd5b810190808051906020019092919050505073ffffffffffffffffffffffffffffffffffffffff1663c5ace4436040518163ffffffff167c010000000000000000000000000000000000000000000000000000000002815260040160206040518083038186803b15801561075957600080fd5b505afa15801561076d573d6000803e3d6000fd5b505050506040513d602081101561078357600080fd5b810190808051906020019092919050505073ffffffffffffffffffffffffffffffffffffffff166359e02dd76040518163ffffffff167c0100000000000000000000000000000000000000000000000000000000028152600401604080518083038186803b1580156107f457600080fd5b505afa158015610808573d6000803e3d6000fd5b505050506040513d604081101561081e57600080fd5b810190808051906020019092919080519060200190929190505050509050600080600460009054906101000a900473ffffffffffffffffffffffffffffffffffffffff1673ffffffffffffffffffffffffffffffffffffffff1663f41d97fc600560009054906101000a900473ffffffffffffffffffffffffffffffffffffffff166040518263ffffffff167c0100000000000000000000000000000000000000000000000000000000028152600401808273ffffffffffffffffffffffffffffffffffffffff1673ffffffffffffffffffffffffffffffffffffffff168152602001915050604080518083038186803b15801561091b57600080fd5b505afa15801561092f573d6000803e3d6000fd5b505050506040513d604081101561094557600080fd5b81019080805190602001909291908051906020019092919050505091509150808284600190040281151561097557fe5b0493505050509056fea165627a7a723058201d89db383013f13a9b41ed05841892c0f9bf0cec9d0bfe53fadd4ec984c9c48c0029",
  "source": "pragma solidity ^0.5.1;\n\nimport { PredictionMarketSystem } from \"@gnosis.pm/hg-contracts/contracts/PredictionMarketSystem.sol\";\nimport { TargetValueOracle } from \"./TargetValueOracle.sol\";\nimport { IERC20 } from \"openzeppelin-solidity/contracts/token/ERC20/IERC20.sol\";\n\ninterface IDSValue {\n    function peek() external view returns (bytes32, bool);\n}\n\ninterface IETHUSDOracle {\n    function priceFeedSource() external view returns (IDSValue);\n}\n\ninterface IDutchX {\n    function ethUSDOracle() external view returns (IETHUSDOracle);\n    function getPriceOfTokenInLastAuction(IERC20 token) external view returns (uint num, uint den);\n}\n\ncontract DutchXTokenPriceOracle is TargetValueOracle {\n    IDutchX public dutchX;\n    IERC20 public token;\n\n    constructor (\n        PredictionMarketSystem pmSystem,\n        uint resolutionTime,\n        uint difficultyTarget,\n        bytes32 questionId,\n        IDutchX _dutchX,\n        IERC20 _token\n    ) public TargetValueOracle(pmSystem, resolutionTime, difficultyTarget, questionId) {\n        dutchX = _dutchX;\n        token = _token;\n    }\n\n    function readValue() internal returns(uint) {\n        (bytes32 ethUSDPrice,) = dutchX.ethUSDOracle().priceFeedSource().peek();\n        (uint num, uint den) = dutchX.getPriceOfTokenInLastAuction(token);\n        return uint(ethUSDPrice) * num / den;\n    }\n}\n",
  "sourcePath": "/Users/leo/flyingcarpet/prediction-market/contracts/DutchXTokenPriceOracle.sol",
  "compiler": {
    "name": "solc",
    "version": "0.5.1+commit.c8a2cb62.Emscripten.clang"
  },
  "schemaVersion": "3.0.18",
  "updatedAt": "2019-12-20T11:45:35.932Z",
  "devdoc": {
    "methods": {
      "resolveValue()": {
        "details": "Triggers an oracle report. If the transaction occurs within the prescribed valid time window, the oracle will attempt to read a value and report a result to the prediction market system. The result reported will be two EVM words (2*32=64 bytes). If the witnessed value exceeds the target value, the first word will be 1 and the second will be 0. Otherwise, if the witnessed value is less than or equal to the target value, the first word will be 0 and the second will be 1. ",
        "return": "value witnessed by this oracle"
      }
    }
  },
  "userdoc": {
    "methods": {}
  }
}