{
  "contractName": "ETHValueOracle",
  "abi": [
    {
      "constant": true,
      "inputs": [],
      "name": "pmSystem",
      "outputs": [
        {
          "name": "",
          "type": "address"
        }
      ],
      "payable": false,
      "stateMutability": "view",
      "type": "function"
    },
    {
      "constant": false,
      "inputs": [],
      "name": "resolveValue",
      "outputs": [],
      "payable": false,
      "stateMutability": "nonpayable",
      "type": "function"
    },
    {
      "constant": true,
      "inputs": [],
      "name": "targetValue",
      "outputs": [
        {
          "name": "",
          "type": "uint256"
        }
      ],
      "payable": false,
      "stateMutability": "view",
      "type": "function"
    },
    {
      "constant": true,
      "inputs": [],
      "name": "priceFeed",
      "outputs": [
        {
          "name": "",
          "type": "address"
        }
      ],
      "payable": false,
      "stateMutability": "view",
      "type": "function"
    },
    {
      "constant": true,
      "inputs": [],
      "name": "questionId",
      "outputs": [
        {
          "name": "",
          "type": "bytes32"
        }
      ],
      "payable": false,
      "stateMutability": "view",
      "type": "function"
    },
    {
      "constant": true,
      "inputs": [],
      "name": "resolutionTime",
      "outputs": [
        {
          "name": "",
          "type": "uint256"
        }
      ],
      "payable": false,
      "stateMutability": "view",
      "type": "function"
    },
    {
      "inputs": [
        {
          "name": "pmSystem",
          "type": "address"
        },
        {
          "name": "_priceFeed",
          "type": "address"
        },
        {
          "name": "resolutionTime",
          "type": "uint256"
        },
        {
          "name": "targetETHPrice",
          "type": "uint256"
        },
        {
          "name": "questionId",
          "type": "bytes32"
        }
      ],
      "payable": false,
      "stateMutability": "nonpayable",
      "type": "constructor"
    },
    {
      "anonymous": false,
      "inputs": [
        {
          "indexed": false,
          "name": "resolutionTime",
          "type": "uint256"
        },
        {
          "indexed": false,
          "name": "currentTime",
          "type": "uint256"
        },
        {
          "indexed": false,
          "name": "value",
          "type": "uint256"
        }
      ],
      "name": "ResolutionSuccessful",
      "type": "event"
    }
  ],
  "bytecode": "0x608060405234801561001057600080fd5b5060405160a0806107bf833981018060405260a081101561003057600080fd5b81019080805190602001909291908051906020019092919080519060200190929190805190602001909291908051906020019092919050505084838383836000806101000a81548173ffffffffffffffffffffffffffffffffffffffff021916908373ffffffffffffffffffffffffffffffffffffffff1602179055508260018190555081600281905550806003819055505050505083600460006101000a81548173ffffffffffffffffffffffffffffffffffffffff021916908373ffffffffffffffffffffffffffffffffffffffff16021790555050505050506106a48061011b6000396000f3fe608060405260043610610072576000357c01000000000000000000000000000000000000000000000000000000009004806305be8b2c1461007757806314685929146100ce57806341b0c9ba146100e5578063741bef1a14610110578063b06a5c5214610167578063f3e41e9014610192575b600080fd5b34801561008357600080fd5b5061008c6101bd565b604051808273ffffffffffffffffffffffffffffffffffffffff1673ffffffffffffffffffffffffffffffffffffffff16815260200191505060405180910390f35b3480156100da57600080fd5b506100e36101e2565b005b3480156100f157600080fd5b506100fa610576565b6040518082815260200191505060405180910390f35b34801561011c57600080fd5b5061012561057c565b604051808273ffffffffffffffffffffffffffffffffffffffff1673ffffffffffffffffffffffffffffffffffffffff16815260200191505060405180910390f35b34801561017357600080fd5b5061017c6105a2565b6040518082815260200191505060405180910390f35b34801561019e57600080fd5b506101a76105a8565b6040518082815260200191505060405180910390f35b6000809054906101000a900473ffffffffffffffffffffffffffffffffffffffff1681565b6001544210151515610282576040517f08c379a000000000000000000000000000000000000000000000000000000000815260040180806020018281038252603b8152602001807f506c65617365207375626d69742061207265736f6c7574696f6e20647572696e81526020017f672074686520636f72726563742074696d6520696e74657276616c000000000081525060400191505060405180910390fd5b600061028c6105ae565b90506002548111156103e3576000809054906101000a900473ffffffffffffffffffffffffffffffffffffffff1673ffffffffffffffffffffffffffffffffffffffff16635dd8085560035460016000604051602001808360ff1681526020018260ff168152602001925050506040516020818303038152906040526040518363ffffffff167c01000000000000000000000000000000000000000000000000000000000281526004018083815260200180602001828103825283818151815260200191508051906020019080838360005b8381101561037957808201518184015260208101905061035e565b50505050905090810190601f1680156103a65780820380516001836020036101000a031916815260200191505b509350505050600060405180830381600087803b1580156103c657600080fd5b505af11580156103da573d6000803e3d6000fd5b5050505061052a565b6000809054906101000a900473ffffffffffffffffffffffffffffffffffffffff1673ffffffffffffffffffffffffffffffffffffffff16635dd8085560035460006001604051602001808360ff1681526020018260ff168152602001925050506040516020818303038152906040526040518363ffffffff167c01000000000000000000000000000000000000000000000000000000000281526004018083815260200180602001828103825283818151815260200191508051906020019080838360005b838110156104c45780820151818401526020810190506104a9565b50505050905090810190601f1680156104f15780820380516001836020036101000a031916815260200191505b509350505050600060405180830381600087803b15801561051157600080fd5b505af1158015610525573d6000803e3d6000fd5b505050505b7fd60f27d6ed7f097522f99624c010efabe0629a1f69468e2c97ab84ff445510d8600154428360405180848152602001838152602001828152602001935050505060405180910390a150565b60025481565b600460009054906101000a900473ffffffffffffffffffffffffffffffffffffffff1681565b60035481565b60015481565b6000600460009054906101000a900473ffffffffffffffffffffffffffffffffffffffff1673ffffffffffffffffffffffffffffffffffffffff166357de26a46040518163ffffffff167c010000000000000000000000000000000000000000000000000000000002815260040160206040518083038186803b15801561063457600080fd5b505afa158015610648573d6000803e3d6000fd5b505050506040513d602081101561065e57600080fd5b81019080805190602001909291905050506001900490509056fea165627a7a72305820db1dd3a832e93d3a46ce590f013279c78322de2670d5aba3140a4ef24c959d710029",
  "source": "pragma solidity ^0.5.1;\nimport { PredictionMarketSystem } from \"@gnosis.pm/hg-contracts/contracts/PredictionMarketSystem.sol\";\nimport { TargetValueOracle } from \"./TargetValueOracle.sol\";\n\ninterface Medianizer {\n    function read() external view returns (bytes32);\n}\n\ncontract ETHValueOracle is TargetValueOracle {\n    /// Price feed which this oracle uses to price Ether\n    Medianizer public priceFeed;\n\n    constructor (\n        PredictionMarketSystem pmSystem,\n        Medianizer _priceFeed,\n        uint resolutionTime,\n        uint targetETHPrice,\n        bytes32 questionId\n    ) public TargetValueOracle(pmSystem, resolutionTime, targetETHPrice, questionId) {\n        priceFeed = _priceFeed;\n    }\n\n    function readValue() internal returns(uint) {\n        return uint(priceFeed.read());\n    }\n}\n",
  "sourcePath": "/Users/leo/flyingcarpet/prediction-market/contracts/ETHValueOracle.sol",
  "compiler": {
    "name": "solc",
    "version": "0.5.1+commit.c8a2cb62.Emscripten.clang"
  },
  "schemaVersion": "3.0.18",
  "updatedAt": "2019-12-20T11:45:35.947Z",
  "devdoc": {
    "methods": {
      "resolveValue()": {
        "details": "Triggers an oracle report. If the transaction occurs within the prescribed valid time window, the oracle will attempt to read a value and report a result to the prediction market system. The result reported will be two EVM words (2*32=64 bytes). If the witnessed value exceeds the target value, the first word will be 1 and the second will be 0. Otherwise, if the witnessed value is less than or equal to the target value, the first word will be 0 and the second will be 1. ",
        "return": "value witnessed by this oracle"
      }
    }
  },
  "userdoc": {
    "methods": {}
  }
}