{
  "contractName": "LMSRMarketMaker",
  "abi": [
    {
      "constant": false,
      "inputs": [],
      "name": "resume",
      "outputs": [],
      "payable": false,
      "stateMutability": "nonpayable",
      "type": "function"
    },
    {
      "constant": true,
      "inputs": [],
      "name": "pmSystem",
      "outputs": [
        {
          "name": "",
          "type": "address"
        }
      ],
      "payable": false,
      "stateMutability": "view",
      "type": "function"
    },
    {
      "constant": true,
      "inputs": [],
      "name": "isERC1155TokenReceiver",
      "outputs": [
        {
          "name": "",
          "type": "bytes4"
        }
      ],
      "payable": false,
      "stateMutability": "view",
      "type": "function"
    },
    {
      "constant": false,
      "inputs": [
        {
          "name": "outcomeTokenAmounts",
          "type": "int256[]"
        },
        {
          "name": "collateralLimit",
          "type": "int256"
        }
      ],
      "name": "trade",
      "outputs": [
        {
          "name": "netCost",
          "type": "int256"
        }
      ],
      "payable": false,
      "stateMutability": "nonpayable",
      "type": "function"
    },
    {
      "constant": false,
      "inputs": [],
      "name": "close",
      "outputs": [],
      "payable": false,
      "stateMutability": "nonpayable",
      "type": "function"
    },
    {
      "constant": false,
      "inputs": [],
      "name": "withdrawFees",
      "outputs": [
        {
          "name": "fees",
          "type": "uint256"
        }
      ],
      "payable": false,
      "stateMutability": "nonpayable",
      "type": "function"
    },
    {
      "constant": false,
      "inputs": [],
      "name": "renounceOwnership",
      "outputs": [],
      "payable": false,
      "stateMutability": "nonpayable",
      "type": "function"
    },
    {
      "constant": false,
      "inputs": [],
      "name": "pause",
      "outputs": [],
      "payable": false,
      "stateMutability": "nonpayable",
      "type": "function"
    },
    {
      "constant": false,
      "inputs": [
        {
          "name": "fundingChange",
          "type": "int256"
        }
      ],
      "name": "changeFunding",
      "outputs": [],
      "payable": false,
      "stateMutability": "nonpayable",
      "type": "function"
    },
    {
      "constant": true,
      "inputs": [],
      "name": "owner",
      "outputs": [
        {
          "name": "",
          "type": "address"
        }
      ],
      "payable": false,
      "stateMutability": "view",
      "type": "function"
    },
    {
      "constant": true,
      "inputs": [],
      "name": "isOwner",
      "outputs": [
        {
          "name": "",
          "type": "bool"
        }
      ],
      "payable": false,
      "stateMutability": "view",
      "type": "function"
    },
    {
      "constant": true,
      "inputs": [
        {
          "name": "outcomeTokenCost",
          "type": "uint256"
        }
      ],
      "name": "calcMarketFee",
      "outputs": [
        {
          "name": "",
          "type": "uint256"
        }
      ],
      "payable": false,
      "stateMutability": "view",
      "type": "function"
    },
    {
      "constant": true,
      "inputs": [],
      "name": "collateralToken",
      "outputs": [
        {
          "name": "",
          "type": "address"
        }
      ],
      "payable": false,
      "stateMutability": "view",
      "type": "function"
    },
    {
      "constant": false,
      "inputs": [
        {
          "name": "_operator",
          "type": "address"
        },
        {
          "name": "",
          "type": "address"
        },
        {
          "name": "",
          "type": "uint256[]"
        },
        {
          "name": "",
          "type": "uint256[]"
        },
        {
          "name": "",
          "type": "bytes"
        }
      ],
      "name": "onERC1155BatchReceived",
      "outputs": [
        {
          "name": "",
          "type": "bytes4"
        }
      ],
      "payable": false,
      "stateMutability": "nonpayable",
      "type": "function"
    },
    {
      "constant": true,
      "inputs": [],
      "name": "stage",
      "outputs": [
        {
          "name": "",
          "type": "uint8"
        }
      ],
      "payable": false,
      "stateMutability": "view",
      "type": "function"
    },
    {
      "constant": true,
      "inputs": [],
      "name": "funding",
      "outputs": [
        {
          "name": "",
          "type": "uint256"
        }
      ],
      "payable": false,
      "stateMutability": "view",
      "type": "function"
    },
    {
      "constant": true,
      "inputs": [
        {
          "name": "",
          "type": "uint256"
        }
      ],
      "name": "conditionIds",
      "outputs": [
        {
          "name": "",
          "type": "bytes32"
        }
      ],
      "payable": false,
      "stateMutability": "view",
      "type": "function"
    },
    {
      "constant": true,
      "inputs": [],
      "name": "atomicOutcomeSlotCount",
      "outputs": [
        {
          "name": "",
          "type": "uint256"
        }
      ],
      "payable": false,
      "stateMutability": "view",
      "type": "function"
    },
    {
      "constant": true,
      "inputs": [],
      "name": "fee",
      "outputs": [
        {
          "name": "",
          "type": "uint64"
        }
      ],
      "payable": false,
      "stateMutability": "view",
      "type": "function"
    },
    {
      "constant": false,
      "inputs": [
        {
          "name": "_fee",
          "type": "uint64"
        }
      ],
      "name": "changeFee",
      "outputs": [],
      "payable": false,
      "stateMutability": "nonpayable",
      "type": "function"
    },
    {
      "constant": false,
      "inputs": [
        {
          "name": "operator",
          "type": "address"
        },
        {
          "name": "",
          "type": "address"
        },
        {
          "name": "",
          "type": "uint256"
        },
        {
          "name": "",
          "type": "uint256"
        },
        {
          "name": "",
          "type": "bytes"
        }
      ],
      "name": "onERC1155Received",
      "outputs": [
        {
          "name": "",
          "type": "bytes4"
        }
      ],
      "payable": false,
      "stateMutability": "nonpayable",
      "type": "function"
    },
    {
      "constant": false,
      "inputs": [
        {
          "name": "newOwner",
          "type": "address"
        }
      ],
      "name": "transferOwnership",
      "outputs": [],
      "payable": false,
      "stateMutability": "nonpayable",
      "type": "function"
    },
    {
      "constant": true,
      "inputs": [],
      "name": "FEE_RANGE",
      "outputs": [
        {
          "name": "",
          "type": "uint64"
        }
      ],
      "payable": false,
      "stateMutability": "view",
      "type": "function"
    },
    {
      "inputs": [
        {
          "name": "_pmSystem",
          "type": "address"
        },
        {
          "name": "_collateralToken",
          "type": "address"
        },
        {
          "name": "_conditionIds",
          "type": "bytes32[]"
        },
        {
          "name": "_fee",
          "type": "uint64"
        }
      ],
      "payable": false,
      "stateMutability": "nonpayable",
      "type": "constructor"
    },
    {
      "anonymous": false,
      "inputs": [
        {
          "indexed": false,
          "name": "initialFunding",
          "type": "uint256"
        }
      ],
      "name": "AMMCreated",
      "type": "event"
    },
    {
      "anonymous": false,
      "inputs": [],
      "name": "AMMPaused",
      "type": "event"
    },
    {
      "anonymous": false,
      "inputs": [],
      "name": "AMMResumed",
      "type": "event"
    },
    {
      "anonymous": false,
      "inputs": [],
      "name": "AMMClosed",
      "type": "event"
    },
    {
      "anonymous": false,
      "inputs": [
        {
          "indexed": false,
          "name": "fundingChange",
          "type": "int256"
        }
      ],
      "name": "AMMFundingChanged",
      "type": "event"
    },
    {
      "anonymous": false,
      "inputs": [
        {
          "indexed": false,
          "name": "newFee",
          "type": "uint64"
        }
      ],
      "name": "AMMFeeChanged",
      "type": "event"
    },
    {
      "anonymous": false,
      "inputs": [
        {
          "indexed": false,
          "name": "fees",
          "type": "uint256"
        }
      ],
      "name": "AMMFeeWithdrawal",
      "type": "event"
    },
    {
      "anonymous": false,
      "inputs": [
        {
          "indexed": true,
          "name": "transactor",
          "type": "address"
        },
        {
          "indexed": false,
          "name": "outcomeTokenAmounts",
          "type": "int256[]"
        },
        {
          "indexed": false,
          "name": "outcomeTokenNetCost",
          "type": "int256"
        },
        {
          "indexed": false,
          "name": "marketFees",
          "type": "uint256"
        }
      ],
      "name": "AMMOutcomeTokenTrade",
      "type": "event"
    },
    {
      "anonymous": false,
      "inputs": [
        {
          "indexed": true,
          "name": "previousOwner",
          "type": "address"
        },
        {
          "indexed": true,
          "name": "newOwner",
          "type": "address"
        }
      ],
      "name": "OwnershipTransferred",
      "type": "event"
    },
    {
      "constant": true,
      "inputs": [
        {
          "name": "outcomeTokenAmounts",
          "type": "int256[]"
        }
      ],
      "name": "calcNetCost",
      "outputs": [
        {
          "name": "netCost",
          "type": "int256"
        }
      ],
      "payable": false,
      "stateMutability": "view",
      "type": "function"
    },
    {
      "constant": true,
      "inputs": [
        {
          "name": "outcomeTokenIndex",
          "type": "uint8"
        }
      ],
      "name": "calcMarginalPrice",
      "outputs": [
        {
          "name": "price",
          "type": "uint256"
        }
      ],
      "payable": false,
      "stateMutability": "view",
      "type": "function"
    }
  ],
  "bytecode": "0x60806040523480156200001157600080fd5b506040516200417938038062004179833981018060405260808110156200003757600080fd5b81019080805190602001909291908051906020019092919080516401000000008111156200006457600080fd5b828101905060208101848111156200007b57600080fd5b81518560208202830111640100000000821117156200009957600080fd5b50509291906020018051906020019092919050505083838383336000806101000a81548173ffffffffffffffffffffffffffffffffffffffff021916908373ffffffffffffffffffffffffffffffffffffffff1602179055506000809054906101000a900473ffffffffffffffffffffffffffffffffffffffff1673ffffffffffffffffffffffffffffffffffffffff16600073ffffffffffffffffffffffffffffffffffffffff167f8be0079c531659141344cd1fd0a4f28419497f9722a3daafe3b4186f6b6457e060405160405180910390a3600073ffffffffffffffffffffffffffffffffffffffff168473ffffffffffffffffffffffffffffffffffffffff1614158015620001c75750670de0b6b3a764000067ffffffffffffffff168167ffffffffffffffff16105b1515620001d357600080fd5b83600160006101000a81548173ffffffffffffffffffffffffffffffffffffffff021916908373ffffffffffffffffffffffffffffffffffffffff16021790555082600260006101000a81548173ffffffffffffffffffffffffffffffffffffffff021916908373ffffffffffffffffffffffffffffffffffffffff16021790555081600390805190602001906200026d9291906200049f565b5080600560006101000a81548167ffffffffffffffff021916908367ffffffffffffffff160217905550600160048190555060008090505b600380549050811015620003b757600160009054906101000a900473ffffffffffffffffffffffffffffffffffffffff1673ffffffffffffffffffffffffffffffffffffffff1663d42dc0c26003838154811015156200030157fe5b90600052602060002001546040518263ffffffff167c01000000000000000000000000000000000000000000000000000000000281526004018082815260200191505060206040518083038186803b1580156200035d57600080fd5b505afa15801562000372573d6000803e3d6000fd5b505050506040513d60208110156200038957600080fd5b81019080805190602001909291905050506004600082825402925050819055508080600101915050620002a5565b50600160045411151562000433576040517f08c379a00000000000000000000000000000000000000000000000000000000081526004018080602001828103825260188152602001807f636f6e646974696f6e73206d7573742062652076616c6964000000000000000081525060200191505060405180910390fd5b6001600760006101000a81548160ff021916908360028111156200045357fe5b02179055507f631ac92e0a879a687b1bd27a7dcbf3ec0be307aa0a1046c0df4109be02c493076006546040518082815260200191505060405180910390a1505050505050505062000519565b828054828255906000526020600020908101928215620004de579160200282015b82811115620004dd578251825591602001919060010190620004c0565b5b509050620004ed9190620004f1565b5090565b6200051691905b8082111562000512576000816000905550600101620004f8565b5090565b90565b613c5080620005296000396000f3fe608060405260043610610143576000357c010000000000000000000000000000000000000000000000000000000090048063046f7da21461014857806305be8b2c1461015f5780630d912442146101b657806315bd76111461021f57806343d726d614610302578063476343ee14610319578063715018a614610344578063782d085b1461035b5780638456cb591461043457806387f39a5c1461044b5780638da5cb5b146104865780638f32d59b146104dd578063b00115091461050c578063b2016bd41461055b578063b20f8e7f146105b2578063bc197c8114610604578063c040e6b8146107c6578063cb4c86b7146107ff578063d8c55af71461082a578063dd83bad214610879578063ddca3f43146108a4578063e7f33789146108e3578063f23a6e6114610928578063f2fde38b14610a54578063fbde47f614610aa5575b600080fd5b34801561015457600080fd5b5061015d610ae4565b005b34801561016b57600080fd5b50610174610be8565b604051808273ffffffffffffffffffffffffffffffffffffffff1673ffffffffffffffffffffffffffffffffffffffff16815260200191505060405180910390f35b3480156101c257600080fd5b506101cb610c0e565b60405180827bffffffffffffffffffffffffffffffffffffffffffffffffffffffff19167bffffffffffffffffffffffffffffffffffffffffffffffffffffffff1916815260200191505060405180910390f35b34801561022b57600080fd5b506102ec6004803603604081101561024257600080fd5b810190808035906020019064010000000081111561025f57600080fd5b82018360208201111561027157600080fd5b8035906020019184602083028401116401000000008311171561029357600080fd5b919080806020026020016040519081016040528093929190818152602001838360200280828437600081840152601f19601f82011690508083019250505050505050919291929080359060200190929190505050610c39565b6040518082815260200191505060405180910390f35b34801561030e57600080fd5b50610317611463565b005b34801561032557600080fd5b5061032e611880565b6040518082815260200191505060405180910390f35b34801561035057600080fd5b50610359611b42565b005b34801561036757600080fd5b5061041e6004803603602081101561037e57600080fd5b810190808035906020019064010000000081111561039b57600080fd5b8201836020820111156103ad57600080fd5b803590602001918460208302840111640100000000831117156103cf57600080fd5b919080806020026020016040519081016040528093929190818152602001838360200280828437600081840152601f19601f820116905080830192505050505050509192919290505050611c7d565b6040518082815260200191505060405180910390f35b34801561044057600080fd5b506104496120a3565b005b34801561045757600080fd5b506104846004803603602081101561046e57600080fd5b81019080803590602001909291905050506121a7565b005b34801561049257600080fd5b5061049b612733565b604051808273ffffffffffffffffffffffffffffffffffffffff1673ffffffffffffffffffffffffffffffffffffffff16815260200191505060405180910390f35b3480156104e957600080fd5b506104f261275c565b604051808215151515815260200191505060405180910390f35b34801561051857600080fd5b506105456004803603602081101561052f57600080fd5b81019080803590602001909291905050506127b3565b6040518082815260200191505060405180910390f35b34801561056757600080fd5b506105706127fc565b604051808273ffffffffffffffffffffffffffffffffffffffff1673ffffffffffffffffffffffffffffffffffffffff16815260200191505060405180910390f35b3480156105be57600080fd5b506105ee600480360360208110156105d557600080fd5b81019080803560ff169060200190929190505050612822565b6040518082815260200191505060405180910390f35b34801561061057600080fd5b50610772600480360360a081101561062757600080fd5b81019080803573ffffffffffffffffffffffffffffffffffffffff169060200190929190803573ffffffffffffffffffffffffffffffffffffffff1690602001909291908035906020019064010000000081111561068457600080fd5b82018360208201111561069657600080fd5b803590602001918460208302840111640100000000831117156106b857600080fd5b9091929391929390803590602001906401000000008111156106d957600080fd5b8201836020820111156106eb57600080fd5b8035906020019184602083028401116401000000008311171561070d57600080fd5b90919293919293908035906020019064010000000081111561072e57600080fd5b82018360208201111561074057600080fd5b8035906020019184600183028401116401000000008311171561076257600080fd5b9091929391929390505050612abf565b60405180827bffffffffffffffffffffffffffffffffffffffffffffffffffffffff19167bffffffffffffffffffffffffffffffffffffffffffffffffffffffff1916815260200191505060405180910390f35b3480156107d257600080fd5b506107db612b50565b604051808260028111156107eb57fe5b60ff16815260200191505060405180910390f35b34801561080b57600080fd5b50610814612b63565b6040518082815260200191505060405180910390f35b34801561083657600080fd5b506108636004803603602081101561084d57600080fd5b8101908080359060200190929190505050612b69565b6040518082815260200191505060405180910390f35b34801561088557600080fd5b5061088e612b8c565b6040518082815260200191505060405180910390f35b3480156108b057600080fd5b506108b9612b92565b604051808267ffffffffffffffff1667ffffffffffffffff16815260200191505060405180910390f35b3480156108ef57600080fd5b506109266004803603602081101561090657600080fd5b81019080803567ffffffffffffffff169060200190929190505050612bac565b005b34801561093457600080fd5b50610a00600480360360a081101561094b57600080fd5b81019080803573ffffffffffffffffffffffffffffffffffffffff169060200190929190803573ffffffffffffffffffffffffffffffffffffffff1690602001909291908035906020019092919080359060200190929190803590602001906401000000008111156109bc57600080fd5b8201836020820111156109ce57600080fd5b803590602001918460018302840111640100000000831117156109f057600080fd5b9091929391929390505050612ceb565b60405180827bffffffffffffffffffffffffffffffffffffffffffffffffffffffff19167bffffffffffffffffffffffffffffffffffffffffffffffffffffffff1916815260200191505060405180910390f35b348015610a6057600080fd5b50610aa360048036036020811015610a7757600080fd5b81019080803573ffffffffffffffffffffffffffffffffffffffff169060200190929190505050612d7a565b005b348015610ab157600080fd5b50610aba612e02565b604051808267ffffffffffffffff1667ffffffffffffffff16815260200191505060405180910390f35b610aec61275c565b1515610b60576040517f08c379a00000000000000000000000000000000000000000000000000000000081526004018080602001828103825260208152602001807f4f776e61626c653a2063616c6c6572206973206e6f7420746865206f776e657281525060200191505060405180910390fd5b6001806002811115610b6e57fe5b600760009054906101000a900460ff166002811115610b8957fe5b141515610b9557600080fd5b6000600760006101000a81548160ff02191690836002811115610bb457fe5b02179055507fb0cf596e1402e50b88a6d1097918e48922e4a2878ece11d7bb51b5d81cf6c17860405160405180910390a150565b600160009054906101000a900473ffffffffffffffffffffffffffffffffffffffff1681565b6000630d9124427c010000000000000000000000000000000000000000000000000000000002905090565b600080806002811115610c4857fe5b600760009054906101000a900460ff166002811115610c6357fe5b141515610c6f57600080fd5b6004548451141515610c8057600080fd5b6000610c8b85611c7d565b9050600080821215610caa57610ca3826000036127b3565b9050610cb6565b610cb3826127b3565b90505b60008112151515610cc657600080fd5b610cd98183612e0e90919063ffffffff16565b935060008514158015610cec5750848413155b80610cf75750600085145b1515610d0257600080fd5b6000821315610f8657600260009054906101000a900473ffffffffffffffffffffffffffffffffffffffff1673ffffffffffffffffffffffffffffffffffffffff166323b872dd3330876040518463ffffffff167c0100000000000000000000000000000000000000000000000000000000028152600401808473ffffffffffffffffffffffffffffffffffffffff1673ffffffffffffffffffffffffffffffffffffffff1681526020018373ffffffffffffffffffffffffffffffffffffffff1673ffffffffffffffffffffffffffffffffffffffff1681526020018281526020019350505050602060405180830381600087803b158015610e0457600080fd5b505af1158015610e18573d6000803e3d6000fd5b505050506040513d6020811015610e2e57600080fd5b81019080805190602001909291905050508015610f695750600260009054906101000a900473ffffffffffffffffffffffffffffffffffffffff1673ffffffffffffffffffffffffffffffffffffffff1663095ea7b3600160009054906101000a900473ffffffffffffffffffffffffffffffffffffffff16846040518363ffffffff167c0100000000000000000000000000000000000000000000000000000000028152600401808373ffffffffffffffffffffffffffffffffffffffff1673ffffffffffffffffffffffffffffffffffffffff16815260200182815260200192505050602060405180830381600087803b158015610f2d57600080fd5b505af1158015610f41573d6000803e3d6000fd5b505050506040513d6020811015610f5757600080fd5b81019080805190602001909291905050505b1515610f7457600080fd5b610f85826003805490506000612e4a565b5b60008090505b6004548110156112845760008782815181101515610fa657fe5b90602001906020020151141515611277576000610fc28261308e565b905060008883815181101515610fd457fe5b90602001906020020151121561113057600160009054906101000a900473ffffffffffffffffffffffffffffffffffffffff1673ffffffffffffffffffffffffffffffffffffffff1663f242432a3330848c8781518110151561103357fe5b906020019060200201516000036040518563ffffffff167c0100000000000000000000000000000000000000000000000000000000028152600401808573ffffffffffffffffffffffffffffffffffffffff1673ffffffffffffffffffffffffffffffffffffffff1681526020018473ffffffffffffffffffffffffffffffffffffffff1673ffffffffffffffffffffffffffffffffffffffff1681526020018381526020018281526020018060200182810382526000815260200160200195505050505050600060405180830381600087803b15801561111357600080fd5b505af1158015611127573d6000803e3d6000fd5b50505050611275565b600160009054906101000a900473ffffffffffffffffffffffffffffffffffffffff1673ffffffffffffffffffffffffffffffffffffffff1663f242432a3033848c8781518110151561117f57fe5b906020019060200201516040518563ffffffff167c0100000000000000000000000000000000000000000000000000000000028152600401808573ffffffffffffffffffffffffffffffffffffffff1673ffffffffffffffffffffffffffffffffffffffff1681526020018473ffffffffffffffffffffffffffffffffffffffff1673ffffffffffffffffffffffffffffffffffffffff1681526020018381526020018281526020018060200182810382526000815260200160200195505050505050600060405180830381600087803b15801561125c57600080fd5b505af1158015611270573d6000803e3d6000fd5b505050505b505b8080600101915050610f8c565b5060008212156113bb576112a28260000360038054905060006132a6565b60008412156113ba57600260009054906101000a900473ffffffffffffffffffffffffffffffffffffffff1673ffffffffffffffffffffffffffffffffffffffff1663a9059cbb33866000036040518363ffffffff167c0100000000000000000000000000000000000000000000000000000000028152600401808373ffffffffffffffffffffffffffffffffffffffff1673ffffffffffffffffffffffffffffffffffffffff16815260200182815260200192505050602060405180830381600087803b15801561137357600080fd5b505af1158015611387573d6000803e3d6000fd5b505050506040513d602081101561139d57600080fd5b810190808051906020019092919050505015156113b957600080fd5b5b5b3373ffffffffffffffffffffffffffffffffffffffff167fda7ff5556ce7ecfcf06296f03426e8c02a7305b85cfd88816a32f7f4969051778784846040518080602001848152602001838152602001828103825285818151815260200191508051906020019060200280838360005b8381101561144557808201518184015260208101905061142a565b5050505090500194505050505060405180910390a250505092915050565b61146b61275c565b15156114df576040517f08c379a00000000000000000000000000000000000000000000000000000000081526004018080602001828103825260208152602001807f4f776e61626c653a2063616c6c6572206973206e6f7420746865206f776e657281525060200191505060405180910390fd5b600060028111156114ec57fe5b600760009054906101000a900460ff16600281111561150757fe5b148061153857506001600281111561151b57fe5b600760009054906101000a900460ff16600281111561153657fe5b145b15156115d2576040517f08c379a00000000000000000000000000000000000000000000000000000000081526004018080602001828103825260238152602001807f54686973204d61726b65742068617320616c7265616479206265656e20636c6f81526020017f736564000000000000000000000000000000000000000000000000000000000081525060400191505060405180910390fd5b60008090505b60045481101561182d5760006115ed8261308e565b9050600160009054906101000a900473ffffffffffffffffffffffffffffffffffffffff1673ffffffffffffffffffffffffffffffffffffffff1663f242432a30611636612733565b84600160009054906101000a900473ffffffffffffffffffffffffffffffffffffffff1673ffffffffffffffffffffffffffffffffffffffff1662fdd58e30886040518363ffffffff167c0100000000000000000000000000000000000000000000000000000000028152600401808373ffffffffffffffffffffffffffffffffffffffff1673ffffffffffffffffffffffffffffffffffffffff1681526020018281526020019250505060206040518083038186803b1580156116f957600080fd5b505afa15801561170d573d6000803e3d6000fd5b505050506040513d602081101561172357600080fd5b81019080805190602001909291905050506040518563ffffffff167c0100000000000000000000000000000000000000000000000000000000028152600401808573ffffffffffffffffffffffffffffffffffffffff1673ffffffffffffffffffffffffffffffffffffffff1681526020018473ffffffffffffffffffffffffffffffffffffffff1673ffffffffffffffffffffffffffffffffffffffff1681526020018381526020018281526020018060200182810382526000815260200160200195505050505050600060405180830381600087803b15801561180757600080fd5b505af115801561181b573d6000803e3d6000fd5b505050505080806001019150506115d8565b506002600760006101000a81548160ff0219169083600281111561184d57fe5b02179055507f6e18b1b14477b5922c6efa82206ed0e3b73c2500e8d1528c9a6e17554ea1255460405160405180910390a1565b600061188a61275c565b15156118fe576040517f08c379a00000000000000000000000000000000000000000000000000000000081526004018080602001828103825260208152602001807f4f776e61626c653a2063616c6c6572206973206e6f7420746865206f776e657281525060200191505060405180910390fd5b600260009054906101000a900473ffffffffffffffffffffffffffffffffffffffff1673ffffffffffffffffffffffffffffffffffffffff166370a08231306040518263ffffffff167c0100000000000000000000000000000000000000000000000000000000028152600401808273ffffffffffffffffffffffffffffffffffffffff1673ffffffffffffffffffffffffffffffffffffffff16815260200191505060206040518083038186803b1580156119b957600080fd5b505afa1580156119cd573d6000803e3d6000fd5b505050506040513d60208110156119e357600080fd5b81019080805190602001909291905050509050600260009054906101000a900473ffffffffffffffffffffffffffffffffffffffff1673ffffffffffffffffffffffffffffffffffffffff1663a9059cbb611a3c612733565b836040518363ffffffff167c0100000000000000000000000000000000000000000000000000000000028152600401808373ffffffffffffffffffffffffffffffffffffffff1673ffffffffffffffffffffffffffffffffffffffff16815260200182815260200192505050602060405180830381600087803b158015611ac257600080fd5b505af1158015611ad6573d6000803e3d6000fd5b505050506040513d6020811015611aec57600080fd5b81019080805190602001909291905050501515611b0857600080fd5b7fce1d35d26fbf6b3cc5cd924de10b5a52b08e484129ea7d93abc48d739fffe5b9816040518082815260200191505060405180910390a190565b611b4a61275c565b1515611bbe576040517f08c379a00000000000000000000000000000000000000000000000000000000081526004018080602001828103825260208152602001807f4f776e61626c653a2063616c6c6572206973206e6f7420746865206f776e657281525060200191505060405180910390fd5b600073ffffffffffffffffffffffffffffffffffffffff166000809054906101000a900473ffffffffffffffffffffffffffffffffffffffff1673ffffffffffffffffffffffffffffffffffffffff167f8be0079c531659141344cd1fd0a4f28419497f9722a3daafe3b4186f6b6457e060405160405180910390a360008060006101000a81548173ffffffffffffffffffffffffffffffffffffffff021916908373ffffffffffffffffffffffffffffffffffffffff160217905550565b60006004548251141515611c9057600080fd5b6060600454604051908082528060200260200182016040528015611cc35781602001602082028038833980820191505090505b50905060008090505b600454811015611e43576000600160009054906101000a900473ffffffffffffffffffffffffffffffffffffffff1673ffffffffffffffffffffffffffffffffffffffff1662fdd58e30611d1f8561308e565b6040518363ffffffff167c0100000000000000000000000000000000000000000000000000000000028152600401808373ffffffffffffffffffffffffffffffffffffffff1673ffffffffffffffffffffffffffffffffffffffff1681526020018281526020019250505060206040518083038186803b158015611da257600080fd5b505afa158015611db6573d6000803e3d6000fd5b505050506040513d6020811015611dcc57600080fd5b8101908080519060200190929190505050905060008112151515611def57600080fd5b611e19818684815181101515611e0157fe5b906020019060200201516134ea90919063ffffffff16565b8383815181101515611e2757fe5b9060200190602002018181525050508080600101915050611ccc565b50600073__Fixed192x64Math_______________________63137bf798680100000000000000006004540260016040518363ffffffff167c010000000000000000000000000000000000000000000000000000000002815260040180838152602001826002811115611eb157fe5b60ff1681526020019250505060206040518083038186803b158015611ed557600080fd5b505af4158015611ee9573d6000803e3d6000fd5b505050506040513d6020811015611eff57600080fd5b81019080805190602001909291905050509050600080611f23838560006001613526565b509150915073__Fixed192x64Math_______________________63137bf7988360016040518363ffffffff167c010000000000000000000000000000000000000000000000000000000002815260040180838152602001826002811115611f8657fe5b60ff1681526020019250505060206040518083038186803b158015611faa57600080fd5b505af4158015611fbe573d6000803e3d6000fd5b505050506040513d6020811015611fd457600080fd5b81019080805190602001909291905050509450611ffa8186612e0e90919063ffffffff16565b94506120376006548461201f68010000000000000000896137cf90919063ffffffff16565b81151561202857fe5b056137cf90919063ffffffff16565b945060008513158061205e57508468010000000000000000808781151561205a57fe5b0502145b1561207f57680100000000000000008581151561207757fe5b05945061209a565b6001680100000000000000008681151561209557fe5b050194505b50505050919050565b6120ab61275c565b151561211f576040517f08c379a00000000000000000000000000000000000000000000000000000000081526004018080602001828103825260208152602001807f4f776e61626c653a2063616c6c6572206973206e6f7420746865206f776e657281525060200191505060405180910390fd5b600080600281111561212d57fe5b600760009054906101000a900460ff16600281111561214857fe5b14151561215457600080fd5b6001600760006101000a81548160ff0219169083600281111561217357fe5b02179055507fbb11914e7a395f00cf0920fe85f50088bd8d7681529fb0bd3c27ccb45a8bcd8f60405160405180910390a150565b6121af61275c565b1515612223576040517f08c379a00000000000000000000000000000000000000000000000000000000081526004018080602001828103825260208152602001807f4f776e61626c653a2063616c6c6572206973206e6f7420746865206f776e657281525060200191505060405180910390fd5b600180600281111561223157fe5b600760009054906101000a900460ff16600281111561224c57fe5b14151561225857600080fd5b600082141515156122d1576040517f08c379a000000000000000000000000000000000000000000000000000000000815260040180806020018281038252601f8152602001807f66756e64696e67206368616e6765206d757374206265206e6f6e2d7a65726f0081525060200191505060405180910390fd5b60008213156125a757600260009054906101000a900473ffffffffffffffffffffffffffffffffffffffff1673ffffffffffffffffffffffffffffffffffffffff166323b872dd3330856040518463ffffffff167c0100000000000000000000000000000000000000000000000000000000028152600401808473ffffffffffffffffffffffffffffffffffffffff1673ffffffffffffffffffffffffffffffffffffffff1681526020018373ffffffffffffffffffffffffffffffffffffffff1673ffffffffffffffffffffffffffffffffffffffff1681526020018281526020019350505050602060405180830381600087803b1580156123d357600080fd5b505af11580156123e7573d6000803e3d6000fd5b505050506040513d60208110156123fd57600080fd5b810190808051906020019092919050505080156125385750600260009054906101000a900473ffffffffffffffffffffffffffffffffffffffff1673ffffffffffffffffffffffffffffffffffffffff1663095ea7b3600160009054906101000a900473ffffffffffffffffffffffffffffffffffffffff16846040518363ffffffff167c0100000000000000000000000000000000000000000000000000000000028152600401808373ffffffffffffffffffffffffffffffffffffffff1673ffffffffffffffffffffffffffffffffffffffff16815260200182815260200192505050602060405180830381600087803b1580156124fc57600080fd5b505af1158015612510573d6000803e3d6000fd5b505050506040513d602081101561252657600080fd5b81019080805190602001909291905050505b151561254357600080fd5b612554826003805490506000612e4a565b6125698260065461384390919063ffffffff16565b6006819055507fc55e9a33fb8b1de5318b5c7b96a32937e54006c82000b2c468ed1fb9f73f6799826040518082815260200191505060405180910390a15b600082121561272f576125c48260000360038054905060006132a6565b6125dc826000036006546138cd90919063ffffffff16565b600681905550600260009054906101000a900473ffffffffffffffffffffffffffffffffffffffff1673ffffffffffffffffffffffffffffffffffffffff1663a9059cbb612628612733565b846000036040518363ffffffff167c0100000000000000000000000000000000000000000000000000000000028152600401808373ffffffffffffffffffffffffffffffffffffffff1673ffffffffffffffffffffffffffffffffffffffff16815260200182815260200192505050602060405180830381600087803b1580156126b157600080fd5b505af11580156126c5573d6000803e3d6000fd5b505050506040513d60208110156126db57600080fd5b810190808051906020019092919050505015156126f757600080fd5b7fc55e9a33fb8b1de5318b5c7b96a32937e54006c82000b2c468ed1fb9f73f6799826040518082815260200191505060405180910390a15b5050565b60008060009054906101000a900473ffffffffffffffffffffffffffffffffffffffff16905090565b60008060009054906101000a900473ffffffffffffffffffffffffffffffffffffffff1673ffffffffffffffffffffffffffffffffffffffff163373ffffffffffffffffffffffffffffffffffffffff1614905090565b6000670de0b6b3a764000067ffffffffffffffff16600560009054906101000a900467ffffffffffffffff1667ffffffffffffffff1683028115156127f457fe5b049050919050565b600260009054906101000a900473ffffffffffffffffffffffffffffffffffffffff1681565b600060606004546040519080825280602002602001820160405280156128575781602001602082028038833980820191505090505b50905060008090505b6004548110156129b1576000600160009054906101000a900473ffffffffffffffffffffffffffffffffffffffff1673ffffffffffffffffffffffffffffffffffffffff1662fdd58e306128b38561308e565b6040518363ffffffff167c0100000000000000000000000000000000000000000000000000000000028152600401808373ffffffffffffffffffffffffffffffffffffffff1673ffffffffffffffffffffffffffffffffffffffff1681526020018281526020019250505060206040518083038186803b15801561293657600080fd5b505afa15801561294a573d6000803e3d6000fd5b505050506040513d602081101561296057600080fd5b810190808051906020019092919050505060000390506000811315151561298657600080fd5b80838381518110151561299557fe5b9060200190602002018181525050508080600101915050612860565b50600073__Fixed192x64Math_______________________63137bf7986801000000000000000084510260026040518363ffffffff167c010000000000000000000000000000000000000000000000000000000002815260040180838152602001826002811115612a1e57fe5b60ff1681526020019250505060206040518083038186803b158015612a4257600080fd5b505af4158015612a56573d6000803e3d6000fd5b505050506040513d6020811015612a6c57600080fd5b81019080805190602001909291905050509050600080612a8f8385886002613526565b92505091506801000000000000000082811515612aa857fe5b0481811515612ab357fe5b04945050505050919050565b60003073ffffffffffffffffffffffffffffffffffffffff168973ffffffffffffffffffffffffffffffffffffffff161415612b205763f23a6e617c0100000000000000000000000000000000000000000000000000000000029050612b44565b60007c01000000000000000000000000000000000000000000000000000000000290505b98975050505050505050565b600760009054906101000a900460ff1681565b60065481565b600381815481101515612b7857fe5b906000526020600020016000915090505481565b60045481565b600560009054906101000a900467ffffffffffffffff1681565b612bb461275c565b1515612c28576040517f08c379a00000000000000000000000000000000000000000000000000000000081526004018080602001828103825260208152602001807f4f776e61626c653a2063616c6c6572206973206e6f7420746865206f776e657281525060200191505060405180910390fd5b6001806002811115612c3657fe5b600760009054906101000a900460ff166002811115612c5157fe5b141515612c5d57600080fd5b81600560006101000a81548167ffffffffffffffff021916908367ffffffffffffffff1602179055507f43acfe4f4a14c012959016586aee3b318a0a30e17bb8edae05a58d46c80b4199600560009054906101000a900467ffffffffffffffff16604051808267ffffffffffffffff1667ffffffffffffffff16815260200191505060405180910390a15050565b60003073ffffffffffffffffffffffffffffffffffffffff168773ffffffffffffffffffffffffffffffffffffffff161415612d4c5763f23a6e617c0100000000000000000000000000000000000000000000000000000000029050612d70565b60007c01000000000000000000000000000000000000000000000000000000000290505b9695505050505050565b612d8261275c565b1515612df6576040517f08c379a00000000000000000000000000000000000000000000000000000000081526004018080602001828103825260208152602001807f4f776e61626c653a2063616c6c6572206973206e6f7420746865206f776e657281525060200191505060405180910390fd5b612dff81613958565b50565b670de0b6b3a764000081565b6000818301905060008212158015612e265750828112155b80612e3c5750600082128015612e3b57508281125b5b1515612e4457fe5b92915050565b6000821415612e5857613089565b8180600190039250506060612e85600384815481101515612e7557fe5b9060005260206000200154613ae1565b9050600160009054906101000a900473ffffffffffffffffffffffffffffffffffffffff1673ffffffffffffffffffffffffffffffffffffffff166372ce4275600260009054906101000a900473ffffffffffffffffffffffffffffffffffffffff1684600102600387815481101515612efb57fe5b906000526020600020015485896040518663ffffffff167c0100000000000000000000000000000000000000000000000000000000028152600401808673ffffffffffffffffffffffffffffffffffffffff1673ffffffffffffffffffffffffffffffffffffffff16815260200185815260200184815260200180602001838152602001828103825284818151815260200191508051906020019060200280838360005b83811015612fba578082015181840152602081019050612f9f565b505050509050019650505050505050600060405180830381600087803b158015612fe357600080fd5b505af1158015612ff7573d6000803e3d6000fd5b5050505060008090505b815181101561308657613079858560038781548110151561301e57fe5b9060005260206000200154858581518110151561303757fe5b90602001906020020151604051602001808381526020018281526020019250505060405160208183030381529060405280519060200120600190048601612e4a565b8080600101915050613001565b50505b505050565b6000806000905060008090505b60038054905081101561320d576000600160009054906101000a900473ffffffffffffffffffffffffffffffffffffffff1673ffffffffffffffffffffffffffffffffffffffff1663d42dc0c26003848154811015156130f757fe5b90600052602060002001546040518263ffffffff167c01000000000000000000000000000000000000000000000000000000000281526004018082815260200191505060206040518083038186803b15801561315257600080fd5b505afa158015613166573d6000803e3d6000fd5b505050506040513d602081101561317c57600080fd5b8101908080519060200190929190505050905060038281548110151561319e57fe5b906000526020600020015481868115156131b457fe5b0660019060020a02604051602001808381526020018281526020019250505060405160208183030381529060405280519060200120600190048301925080858115156131fc57fe5b04945050808060010191505061309b565b50600260009054906101000a900473ffffffffffffffffffffffffffffffffffffffff1681604051602001808373ffffffffffffffffffffffffffffffffffffffff1673ffffffffffffffffffffffffffffffffffffffff166c01000000000000000000000000028152601401828152602001925050506040516020818303038152906040528051906020012060019004915050919050565b60008214156132b4576134e5565b81806001900392505060606132e16003848154811015156132d157fe5b9060005260206000200154613ae1565b905060008090505b815181101561336e57613361858560038781548110151561330657fe5b9060005260206000200154858581518110151561331f57fe5b906020019060200201516040516020018083815260200182815260200192505050604051602081830303815290604052805190602001206001900486016132a6565b80806001019150506132e9565b50600160009054906101000a900473ffffffffffffffffffffffffffffffffffffffff1673ffffffffffffffffffffffffffffffffffffffff16639e7212ad600260009054906101000a900473ffffffffffffffffffffffffffffffffffffffff16846001026003878154811015156133e357fe5b906000526020600020015485896040518663ffffffff167c0100000000000000000000000000000000000000000000000000000000028152600401808673ffffffffffffffffffffffffffffffffffffffff1673ffffffffffffffffffffffffffffffffffffffff16815260200185815260200184815260200180602001838152602001828103825284818151815260200191508051906020019060200280838360005b838110156134a2578082015181840152602081019050613487565b505050509050019650505050505050600060405180830381600087803b1580156134cb57600080fd5b505af11580156134df573d6000803e3d6000fd5b50505050505b505050565b60008183039050600082121580156135025750828113155b80613518575060008212801561351757508281135b5b151561352057fe5b92915050565b600080600080871215801561353e5750600060065412155b151561354957600080fd5b73__Fixed192x64Math_______________________63ccc13814876040518263ffffffff167c01000000000000000000000000000000000000000000000000000000000281526004018080602001828103825283818151815260200191508051906020019060200280838360005b838110156135d25780820151818401526020810190506135b7565b505050509050019250505060206040518083038186803b1580156135f557600080fd5b505af4158015613609573d6000803e3d6000fd5b505050506040513d602081101561361f57600080fd5b8101908080519060200190929190505050915060065461364888846137cf90919063ffffffff16565b81151561365157fe5b05915061367068b80000000000000000836134ea90919063ffffffff16565b9150600080600090505b87518160ff1610156137c35773__Fixed192x64Math_______________________631d5801236136ec866006546136d48e8e8860ff168151811015156136bc57fe5b906020019060200201516137cf90919063ffffffff16565b8115156136dd57fe5b056134ea90919063ffffffff16565b886040518363ffffffff167c01000000000000000000000000000000000000000000000000000000000281526004018083815260200182600281111561372e57fe5b60ff1681526020019250505060206040518083038186803b15801561375257600080fd5b505af4158015613766573d6000803e3d6000fd5b505050506040513d602081101561377c57600080fd5b810190808051906020019092919050505091508660ff168160ff1614156137a1578192505b6137b4828661384390919063ffffffff16565b9450808060010191505061367a565b50509450945094915050565b6000808314156137e2576000905061383d565b81830290507fffffffffffffffffffffffffffffffffffffffffffffffffffffffffffffffff8314158061381e575060ff60019060020a028214155b8015613834575081838281151561383157fe5b05145b151561383c57fe5b5b92915050565b60008082840190508381101515156138c3576040517f08c379a000000000000000000000000000000000000000000000000000000000815260040180806020018281038252601b8152602001807f536166654d6174683a206164646974696f6e206f766572666c6f77000000000081525060200191505060405180910390fd5b8091505092915050565b6000828211151515613947576040517f08c379a000000000000000000000000000000000000000000000000000000000815260040180806020018281038252601e8152602001807f536166654d6174683a207375627472616374696f6e206f766572666c6f77000081525060200191505060405180910390fd5b600082840390508091505092915050565b600073ffffffffffffffffffffffffffffffffffffffff168173ffffffffffffffffffffffffffffffffffffffff1614151515613a23576040517f08c379a00000000000000000000000000000000000000000000000000000000081526004018080602001828103825260268152602001807f4f776e61626c653a206e6577206f776e657220697320746865207a65726f206181526020017f646472657373000000000000000000000000000000000000000000000000000081525060400191505060405180910390fd5b8073ffffffffffffffffffffffffffffffffffffffff166000809054906101000a900473ffffffffffffffffffffffffffffffffffffffff1673ffffffffffffffffffffffffffffffffffffffff167f8be0079c531659141344cd1fd0a4f28419497f9722a3daafe3b4186f6b6457e060405160405180910390a3806000806101000a81548173ffffffffffffffffffffffffffffffffffffffff021916908373ffffffffffffffffffffffffffffffffffffffff16021790555050565b6060600160009054906101000a900473ffffffffffffffffffffffffffffffffffffffff1673ffffffffffffffffffffffffffffffffffffffff1663d42dc0c2836040518263ffffffff167c01000000000000000000000000000000000000000000000000000000000281526004018082815260200191505060206040518083038186803b158015613b7257600080fd5b505afa158015613b86573d6000803e3d6000fd5b505050506040513d6020811015613b9c57600080fd5b8101908080519060200190929190505050604051908082528060200260200182016040528015613bdb5781602001602082028038833980820191505090505b50905060008090505b8151811015613c1e578060019060020a028282815181101515613c0357fe5b90602001906020020181815250508080600101915050613be4565b5091905056fea165627a7a7230582078759b90b6a9bd5b64dc9fa53a0a1e4e15e9f9cbfb5dac55c743d737abfd5feb0029",
  "source": "pragma solidity ^0.5.1;\nimport { SafeMath } from \"openzeppelin-solidity/contracts/math/SafeMath.sol\";\nimport { Fixed192x64Math } from \"@gnosis.pm/util-contracts/contracts/Fixed192x64Math.sol\";\nimport { IERC20 } from \"openzeppelin-solidity/contracts/token/ERC20/IERC20.sol\";\nimport { PredictionMarketSystem } from \"@gnosis.pm/hg-contracts/contracts/PredictionMarketSystem.sol\";\nimport { MarketMaker } from \"./MarketMaker.sol\";\n\n/// @title LMSR market maker contract - Calculates share prices based on share distribution and initial funding\n/// @author Alan Lu - <alan.lu@gnosis.pm>\ncontract LMSRMarketMaker is MarketMaker {\n    using SafeMath for uint;\n\n    /*\n     *  Constants\n     */\n    uint constant ONE = 0x10000000000000000;\n    int constant EXP_LIMIT = 3394200909562557497344;\n\n    constructor(PredictionMarketSystem _pmSystem, IERC20 _collateralToken, bytes32[] memory _conditionIds, uint64 _fee)\n        public\n        MarketMaker(_pmSystem, _collateralToken, _conditionIds, _fee) {}\n\n\n    /// @dev Calculates the net cost for executing a given trade.\n    /// @param outcomeTokenAmounts Amounts of outcome tokens to buy from the market. If an amount is negative, represents an amount to sell to the market.\n    /// @return Net cost of trade. If positive, represents amount of collateral which would be paid to the market for the trade. If negative, represents amount of collateral which would be received from the market for the trade.\n    function calcNetCost(int[] memory outcomeTokenAmounts)\n        public\n        view\n        returns (int netCost)\n    {\n        require(outcomeTokenAmounts.length == atomicOutcomeSlotCount);\n\n        int[] memory otExpNums = new int[](atomicOutcomeSlotCount);\n        for (uint i = 0; i < atomicOutcomeSlotCount; i++) {\n            int balance = int(pmSystem.balanceOf(address(this), generateAtomicPositionId(i)));\n            require(balance >= 0);\n            otExpNums[i] = outcomeTokenAmounts[i].sub(balance);\n        }\n\n        int log2N = Fixed192x64Math.binaryLog(atomicOutcomeSlotCount * ONE, Fixed192x64Math.EstimationMode.UpperBound);\n\n        (uint sum, int offset, ) = sumExpOffset(log2N, otExpNums, 0, Fixed192x64Math.EstimationMode.UpperBound);\n        netCost = Fixed192x64Math.binaryLog(sum, Fixed192x64Math.EstimationMode.UpperBound);\n        netCost = netCost.add(offset);\n        netCost = (netCost.mul(int(ONE)) / log2N).mul(int(funding));\n\n        // Integer division for negative numbers already uses ceiling,\n        // so only check boundary condition for positive numbers\n        if(netCost <= 0 || netCost / int(ONE) * int(ONE) == netCost) {\n            netCost /= int(ONE);\n        } else {\n            netCost = netCost / int(ONE) + 1;\n        }\n    }\n\n    /// @dev Returns marginal price of an outcome\n    /// @param outcomeTokenIndex Index of outcome to determine marginal price of\n    /// @return Marginal price of an outcome as a fixed point number\n    function calcMarginalPrice(uint8 outcomeTokenIndex)\n        public\n        view\n        returns (uint price)\n    {\n        int[] memory negOutcomeTokenBalances = new int[](atomicOutcomeSlotCount);\n        for (uint i = 0; i < atomicOutcomeSlotCount; i++) {\n            int negBalance = -int(pmSystem.balanceOf(address(this), generateAtomicPositionId(i)));\n            require(negBalance <= 0);\n            negOutcomeTokenBalances[i] = negBalance;\n        }\n\n        int log2N = Fixed192x64Math.binaryLog(negOutcomeTokenBalances.length * ONE, Fixed192x64Math.EstimationMode.Midpoint);\n        // The price function is exp(quantities[i]/b) / sum(exp(q/b) for q in quantities)\n        // To avoid overflow, calculate with\n        // exp(quantities[i]/b - offset) / sum(exp(q/b - offset) for q in quantities)\n        (uint sum, , uint outcomeExpTerm) = sumExpOffset(log2N, negOutcomeTokenBalances, outcomeTokenIndex, Fixed192x64Math.EstimationMode.Midpoint);\n        return outcomeExpTerm / (sum / ONE);\n    }\n\n    /*\n     *  Private functions\n     */\n    /// @dev Calculates sum(exp(q/b - offset) for q in quantities), where offset is set\n    ///      so that the sum fits in 248-256 bits\n    /// @param log2N Binary logarithm of the number of outcomes\n    /// @param otExpNums Numerators of the exponents, denoted as q in the aforementioned formula\n    /// @param outcomeIndex Index of exponential term to extract (for use by marginal price function)\n    /// @return A result structure composed of the sum, the offset used, and the summand associated with the supplied index\n    function sumExpOffset(int log2N, int[] memory otExpNums, uint8 outcomeIndex, Fixed192x64Math.EstimationMode estimationMode)\n        private\n        view\n        returns (uint sum, int offset, uint outcomeExpTerm)\n    {\n        // Naive calculation of this causes an overflow\n        // since anything above a bit over 133*ONE supplied to exp will explode\n        // as exp(133) just about fits into 192 bits of whole number data.\n\n        // The choice of this offset is subject to another limit:\n        // computing the inner sum successfully.\n        // Since the index is 8 bits, there has to be 8 bits of headroom for\n        // each summand, meaning q/b - offset <= exponential_limit,\n        // where that limit can be found with `mp.floor(mp.log((2**248 - 1) / ONE) * ONE)`\n        // That is what EXP_LIMIT is set to: it is about 127.5\n\n        // finally, if the distribution looks like [BIG, tiny, tiny...], using a\n        // BIG offset will cause the tiny quantities to go really negative\n        // causing the associated exponentials to vanish.\n\n        require(log2N >= 0 && int(funding) >= 0);\n        offset = Fixed192x64Math.max(otExpNums);\n        offset = offset.mul(log2N) / int(funding);\n        offset = offset.sub(EXP_LIMIT);\n        uint term;\n        for (uint8 i = 0; i < otExpNums.length; i++) {\n            term = Fixed192x64Math.pow2((otExpNums[i].mul(log2N) / int(funding)).sub(offset), estimationMode);\n            if (i == outcomeIndex)\n                outcomeExpTerm = term;\n            sum = sum.add(term);\n        }\n    }\n}\n",
  "sourcePath": "@gnosis.pm/hg-market-makers/contracts/LMSRMarketMaker.sol",
  "compiler": {
    "name": "solc",
    "version": "0.5.1+commit.c8a2cb62.Emscripten.clang"
  },
  "schemaVersion": "3.0.18",
  "updatedAt": "2019-12-20T11:49:10.227Z",
  "networkType": "ethereum",
  "devdoc": {
    "author": "Alan Lu - <alan.lu@gnosis.pm>",
    "methods": {
      "calcMarginalPrice(uint8)": {
        "details": "Returns marginal price of an outcome",
        "params": {
          "outcomeTokenIndex": "Index of outcome to determine marginal price of"
        },
        "return": "Marginal price of an outcome as a fixed point number"
      },
      "calcMarketFee(uint256)": {
        "details": "Calculates fee to be paid to market maker",
        "params": {
          "outcomeTokenCost": "Cost for buying outcome tokens"
        },
        "return": "Fee for trade"
      },
      "calcNetCost(int256[])": {
        "details": "Calculates the net cost for executing a given trade.",
        "params": {
          "outcomeTokenAmounts": "Amounts of outcome tokens to buy from the market. If an amount is negative, represents an amount to sell to the market."
        },
        "return": "Net cost of trade. If positive, represents amount of collateral which would be paid to the market for the trade. If negative, represents amount of collateral which would be received from the market for the trade."
      },
      "changeFunding(int256)": {
        "details": "Allows to fund the market with collateral tokens converting them into outcome tokens Note for the future: should combine splitPosition and mergePositions into one function, as code duplication causes things like this to happen."
      },
      "close()": {
        "details": "Allows market owner to close the markets by transferring all remaining outcome tokens to the owner"
      },
      "isOwner()": {
        "details": "Returns true if the caller is the current owner."
      },
      "owner()": {
        "details": "Returns the address of the current owner."
      },
      "renounceOwnership()": {
        "details": "Leaves the contract without owner. It will not be possible to call `onlyOwner` functions anymore. Can only be called by the current owner.     * > Note: Renouncing ownership will leave the contract without an owner, thereby removing any functionality that is only available to the owner."
      },
      "trade(int256[],int256)": {
        "details": "Allows to trade outcome tokens and collateral with the market maker",
        "params": {
          "collateralLimit": "If positive, this is the limit for the amount of collateral tokens which will be sent to the market to conduct the trade. If negative, this is the minimum amount of collateral tokens which will be received from the market for the trade. If zero, there is no limit.",
          "outcomeTokenAmounts": "Amounts of each atomic outcome token to buy or sell. If positive, will buy this amount of outcome token from the market. If negative, will sell this amount back to the market instead. The indices of this array range from 0 to product(all conditions' outcomeSlotCounts)-1. For example, with two conditions with three outcome slots each and one condition with two outcome slots, you will have 3*3*2=18 total atomic outcome tokens, and the indices will range from 0 to 17. The indices map to atomic outcome slots depending on the order of the conditionIds. Let's say the first condition has slots A, B, C the second has slots X, Y, and the third has slots I, J, K. We can associate each atomic outcome token with indices by this map: A&X&I == 0 B&X&I == 1 C&X&I == 2 A&Y&I == 3 B&Y&I == 4 C&Y&I == 5 A&X&J == 6 B&X&J == 7 C&X&J == 8 A&Y&J == 9 B&Y&J == 10 C&Y&J == 11 A&X&K == 12 B&X&K == 13 C&X&K == 14 A&Y&K == 15 B&Y&K == 16 C&Y&K == 17 This order is calculated via the generateAtomicPositionId function below: C&Y&I -> (2, 1, 0) -> 2 + 3 * (1 + 2 * (0 + 3 * (0 + 0)))"
        },
        "return": "If positive, the amount of collateral sent to the market. If negative, the amount of collateral received from the market. If zero, no collateral was sent or received."
      },
      "transferOwnership(address)": {
        "details": "Transfers ownership of the contract to a new account (`newOwner`). Can only be called by the current owner."
      },
      "withdrawFees()": {
        "details": "Allows market owner to withdraw fees generated by trades",
        "return": "Fee amount"
      }
    },
    "title": "LMSR market maker contract - Calculates share prices based on share distribution and initial funding"
  },
  "userdoc": {
    "methods": {}
  }
}