{
  "contractName": "MedianizerStandin",
  "abi": [
    {
      "constant": true,
      "inputs": [],
      "name": "peek",
      "outputs": [
        {
          "name": "",
          "type": "bytes32"
        },
        {
          "name": "",
          "type": "bool"
        }
      ],
      "payable": false,
      "stateMutability": "view",
      "type": "function"
    }
  ],
  "bytecode": "0x608060405234801561001057600080fd5b5060b78061001f6000396000f3fe6080604052600436106039576000357c01000000000000000000000000000000000000000000000000000000009004806359e02dd714603e575b600080fd5b348015604957600080fd5b5060506071565b60405180838152602001821515151581526020019250505060405180910390f35b600080680d3ce2eab30e838000600102600191509150909156fea165627a7a72305820365e4dd70eac75fa7122706fc543ccff0f39172a37f7eb163d5bbb4d3617fc9d0029",
  "source": "pragma solidity ^0.5.1;\n\nimport { IERC20 } from \"openzeppelin-solidity/contracts/token/ERC20/IERC20.sol\";\nimport { IDSValue, IETHUSDOracle, IDutchX } from \"./DutchXTokenPriceOracle.sol\";\n\ncontract MedianizerStandin is IDSValue {\n    function peek() external view returns (bytes32, bool) {\n        return (bytes32(uint(244195000000000000000)), true);\n    }\n}\n\ncontract ETHUSDOracleStandin is IETHUSDOracle {\n    MedianizerStandin internal source;\n\n    constructor() public {\n        source = new MedianizerStandin();\n    }\n\n    function priceFeedSource() external view returns (IDSValue) {\n        return source;\n    }\n}\n\ncontract DutchXStandin is IDutchX {\n    ETHUSDOracleStandin internal oracle;\n\n    constructor() public {\n        oracle = new ETHUSDOracleStandin();\n    }\n\n    function ethUSDOracle() external view returns (IETHUSDOracle) {\n        return oracle;\n    }\n\n    function getPriceOfTokenInLastAuction(IERC20 /* token */) external view returns (uint num, uint den) {\n        return (5985000000000000000, 1514929708384049525858);\n    }\n}\n",
  "sourcePath": "/Users/leo/flyingcarpet/prediction-market/contracts/DutchXStandin.sol",
  "compiler": {
    "name": "solc",
    "version": "0.5.1+commit.c8a2cb62.Emscripten.clang"
  },
  "schemaVersion": "3.0.18",
  "updatedAt": "2019-12-20T11:45:35.913Z",
  "devdoc": {
    "methods": {}
  },
  "userdoc": {
    "methods": {}
  }
}