{
  "contractName": "TestMedianizer",
  "abi": [
    {
      "constant": true,
      "inputs": [],
      "name": "read",
      "outputs": [
        {
          "name": "",
          "type": "bytes32"
        }
      ],
      "payable": false,
      "stateMutability": "view",
      "type": "function"
    }
  ],
  "bytecode": "0x6080604052348015600f57600080fd5b5060ab8061001e6000396000f3fe6080604052600436106039576000357c01000000000000000000000000000000000000000000000000000000009004806357de26a414603e575b600080fd5b348015604957600080fd5b5060506066565b6040518082815260200191505060405180910390f35b600080680acc98178a499100009050806001029150509056fea165627a7a723058200feda7de8336cbd0fab859f072beab7339593982110f4cb9044285e3ef48842c0029",
  "source": "pragma solidity ^0.5.1;\n\nimport { Medianizer } from \"./ETHValueOracle.sol\";\n\ncontract TestMedianizer is Medianizer {\n    function read() external view returns (bytes32) {\n      uint testValue = 199210000000000000000;\n      return bytes32(testValue);\n    }\n}\n",
  "sourcePath": "/Users/leo/flyingcarpet/prediction-market/contracts/TestMedianizer.sol",
  "compiler": {
    "name": "solc",
    "version": "0.5.1+commit.c8a2cb62.Emscripten.clang"
  },
  "schemaVersion": "3.0.18",
  "updatedAt": "2019-12-09T06:29:31.277Z",
  "devdoc": {
    "methods": {}
  },
  "userdoc": {
    "methods": {}
  }
}